{
  "address": "0xE4d719b525E965c0D44247314941acB041B1e49d",
  "abi": [
    {
      "inputs": [
        {
          "internalType": "contract DNSSEC",
          "name": "_dnssec",
          "type": "address"
        },
        {
          "internalType": "contract PublicSuffixList",
          "name": "_suffixes",
          "type": "address"
        },
        {
          "internalType": "contract ENS",
          "name": "_ens",
          "type": "address"
        }
      ],
      "stateMutability": "nonpayable",
      "type": "constructor"
    },
    {
      "inputs": [],
      "name": "NoOwnerRecordFound",
      "type": "error"
    },
    {
      "inputs": [],
      "name": "StaleProof",
      "type": "error"
    },
    {
      "anonymous": false,
      "inputs": [
        {
          "indexed": true,
          "internalType": "bytes32",
          "name": "node",
          "type": "bytes32"
        },
        {
          "indexed": true,
          "internalType": "address",
          "name": "owner",
          "type": "address"
        },
        {
          "indexed": false,
          "internalType": "bytes",
          "name": "dnsname",
          "type": "bytes"
        },
        {
          "indexed": false,
          "internalType": "uint32",
          "name": "inception",
          "type": "uint32"
        }
      ],
      "name": "Claim",
      "type": "event"
    },
    {
      "anonymous": false,
      "inputs": [
        {
          "indexed": false,
          "internalType": "address",
          "name": "oracle",
          "type": "address"
        }
      ],
      "name": "NewOracle",
      "type": "event"
    },
    {
      "anonymous": false,
      "inputs": [
        {
          "indexed": false,
          "internalType": "address",
          "name": "suffixes",
          "type": "address"
        }
      ],
      "name": "NewPublicSuffixList",
      "type": "event"
    },
    {
      "inputs": [],
      "name": "ens",
      "outputs": [
        {
          "internalType": "contract ENS",
          "name": "",
          "type": "address"
        }
      ],
      "stateMutability": "view",
      "type": "function"
    },
    {
      "inputs": [
        {
          "internalType": "bytes32",
          "name": "",
          "type": "bytes32"
        }
      ],
      "name": "inceptions",
      "outputs": [
        {
          "internalType": "uint32",
          "name": "",
          "type": "uint32"
        }
      ],
      "stateMutability": "view",
      "type": "function"
    },
    {
      "inputs": [],
      "name": "oracle",
      "outputs": [
        {
          "internalType": "contract DNSSEC",
          "name": "",
          "type": "address"
        }
      ],
      "stateMutability": "view",
      "type": "function"
    },
    {
      "inputs": [
        {
          "internalType": "bytes",
          "name": "name",
          "type": "bytes"
        },
        {
          "components": [
            {
              "internalType": "bytes",
              "name": "rrset",
              "type": "bytes"
            },
            {
              "internalType": "bytes",
              "name": "sig",
              "type": "bytes"
            }
          ],
          "internalType": "struct DNSSEC.RRSetWithSignature[]",
          "name": "input",
          "type": "tuple[]"
        }
      ],
      "name": "proveAndClaim",
      "outputs": [],
      "stateMutability": "nonpayable",
      "type": "function"
    },
    {
      "inputs": [
        {
          "internalType": "bytes",
          "name": "name",
          "type": "bytes"
        },
        {
          "components": [
            {
              "internalType": "bytes",
              "name": "rrset",
              "type": "bytes"
            },
            {
              "internalType": "bytes",
              "name": "sig",
              "type": "bytes"
            }
          ],
          "internalType": "struct DNSSEC.RRSetWithSignature[]",
          "name": "input",
          "type": "tuple[]"
        },
        {
          "internalType": "address",
          "name": "resolver",
          "type": "address"
        },
        {
          "internalType": "address",
          "name": "addr",
          "type": "address"
        }
      ],
      "name": "proveAndClaimWithResolver",
      "outputs": [],
      "stateMutability": "nonpayable",
      "type": "function"
    },
    {
      "inputs": [
        {
          "internalType": "contract PublicSuffixList",
          "name": "_suffixes",
          "type": "address"
        }
      ],
      "name": "setPublicSuffixList",
      "outputs": [],
      "stateMutability": "nonpayable",
      "type": "function"
    },
    {
      "inputs": [],
      "name": "suffixes",
      "outputs": [
        {
          "internalType": "contract PublicSuffixList",
          "name": "",
          "type": "address"
        }
      ],
      "stateMutability": "view",
      "type": "function"
    },
    {
      "inputs": [
        {
          "internalType": "bytes4",
          "name": "interfaceID",
          "type": "bytes4"
        }
      ],
      "name": "supportsInterface",
      "outputs": [
        {
          "internalType": "bool",
          "name": "",
          "type": "bool"
        }
      ],
      "stateMutability": "pure",
      "type": "function"
    }
  ],
  "transactionHash": "0x5b7c60c74f69b25dee3eda9e3ad5ce38ecd34a99c742ed22e96e755463b85bb2",
  "args": [
    "0x3eB09653c156D426a6eBF3d18Aa03b5368Bed2e8",
    "0x71AEAB69EE7726639EFB7Cb3F8D9Fe8f7b5E3947",
    "0x00000000000C2E074eC69A0dFb2997BA6C7d2e1e"
  ],
  "numDeployments": 2,
  "solcInputHash": "20d0cf755bdff128bd31fe4809ab35fa",
  "bytecode": "0x60c06040523480156200001157600080fd5b5060405162001ef038038062001ef08339810160408190526200003491620000f5565b6001600160a01b03831660a08190526040519081527fb3eacd0e351fafdfefdec84e1cd19679b38dbcd63ea7c2c24da17fd2bc3b3c0e9060200160405180910390a1600080546001600160a01b0319166001600160a01b0384169081179091556040519081527f9176b7f47e4504df5e5516c99d90d82ac7cbd49cc77e7f22ba2ac2f2e3a3eba89060200160405180910390a16001600160a01b031660805250620001499050565b6001600160a01b0381168114620000f257600080fd5b50565b6000806000606084860312156200010b57600080fd5b83516200011881620000dc565b60208501519093506200012b81620000dc565b60408501519092506200013e81620000dc565b809150509250925092565b60805160a051611d42620001ae60003960008181610182015261088c01526000818161015b015281816103b4015281816104ff015281816105b8015281816106500152818161080b01528181610d3001528181610e740152610fa50152611d426000f3fe608060405234801561001057600080fd5b50600436106100885760003560e01c806329d566301161005b57806329d566301461011857806330349ebe1461012b5780633f15457f146101565780637dc0d1d01461017d57600080fd5b806301ffc9a71461008d57806306963218146100b55780631ecfc411146100ca57806325916d41146100dd575b600080fd5b6100a061009b3660046116cf565b6101a4565b60405190151581526020015b60405180910390f35b6100c86100c3366004611911565b61023d565b005b6100c86100d836600461199a565b61061e565b6101036100eb3660046119b7565b60016020526000908152604090205463ffffffff1681565b60405163ffffffff90911681526020016100ac565b6100c86101263660046119d0565b6107ae565b60005461013e906001600160a01b031681565b6040516001600160a01b0390911681526020016100ac565b61013e7f000000000000000000000000000000000000000000000000000000000000000081565b61013e7f000000000000000000000000000000000000000000000000000000000000000081565b60007fffffffff0000000000000000000000000000000000000000000000000000000082167f01ffc9a700000000000000000000000000000000000000000000000000000000148061023757507fffffffff0000000000000000000000000000000000000000000000000000000082167f2f43542800000000000000000000000000000000000000000000000000000000145b92915050565b600080600061024c8787610882565b91945092509050336001600160a01b038216146102d65760405162461bcd60e51b815260206004820152602d60248201527f4f6e6c79206f776e65722063616e2063616c6c2070726f7665416e64436c616960448201527f6d576974685265736f6c7665720000000000000000000000000000000000000060648201526084015b60405180910390fd5b6001600160a01b03841615610563576001600160a01b0385166103615760405162461bcd60e51b815260206004820152602660248201527f43616e6e6f74207365742061646472206966207265736f6c766572206973206e60448201527f6f7420736574000000000000000000000000000000000000000000000000000060648201526084016102cd565b6040517f5ef2c7f000000000000000000000000000000000000000000000000000000000815260048101849052602481018390523060448201526001600160a01b038681166064830152600060848301527f00000000000000000000000000000000000000000000000000000000000000001690635ef2c7f09060a401600060405180830381600087803b1580156103f857600080fd5b505af115801561040c573d6000803e3d6000fd5b505050506000838360405160200161042e929190918252602082015260400190565b60408051808303601f190181529082905280516020909101207fd5fa2b00000000000000000000000000000000000000000000000000000000008252600482018190526001600160a01b03878116602484015290925087169063d5fa2b0090604401600060405180830381600087803b1580156104aa57600080fd5b505af11580156104be573d6000803e3d6000fd5b50506040517f5b0fc9c3000000000000000000000000000000000000000000000000000000008152600481018490526001600160a01b0385811660248301527f0000000000000000000000000000000000000000000000000000000000000000169250635b0fc9c39150604401600060405180830381600087803b15801561054557600080fd5b505af1158015610559573d6000803e3d6000fd5b5050505050610615565b6040517f5ef2c7f000000000000000000000000000000000000000000000000000000000815260048101849052602481018390526001600160a01b0382811660448301528681166064830152600060848301527f00000000000000000000000000000000000000000000000000000000000000001690635ef2c7f09060a401600060405180830381600087803b1580156105fc57600080fd5b505af1158015610610573d6000803e3d6000fd5b505050505b50505050505050565b6040517f02571be3000000000000000000000000000000000000000000000000000000008152600060048201819052907f00000000000000000000000000000000000000000000000000000000000000006001600160a01b0316906302571be390602401602060405180830381865afa15801561069f573d6000803e3d6000fd5b505050506040513d601f19601f820116820180604052508101906106c39190611a34565b90506000816001600160a01b0316638da5cb5b6040518163ffffffff1660e01b8152600401602060405180830381865afa158015610705573d6000803e3d6000fd5b505050506040513d601f19601f820116820180604052508101906107299190611a34565b9050336001600160a01b0382161461074057600080fd5b600080547fffffffffffffffffffffffff0000000000000000000000000000000000000000166001600160a01b0385169081179091556040519081527f9176b7f47e4504df5e5516c99d90d82ac7cbd49cc77e7f22ba2ac2f2e3a3eba89060200160405180910390a1505050565b60008060006107bd8585610882565b6040517f06ab592300000000000000000000000000000000000000000000000000000000815260048101849052602481018390526001600160a01b03828116604483015293965091945092507f0000000000000000000000000000000000000000000000000000000000000000909116906306ab5923906064016020604051808303816000875af1158015610856573d6000803e3d6000fd5b505050506040513d601f19601f8201168201806040525081019061087a9190611a51565b505050505050565b60008060008060007f00000000000000000000000000000000000000000000000000000000000000006001600160a01b031663bdf95fef876040518263ffffffff1660e01b81526004016108d69190611aba565b600060405180830381865afa1580156108f3573d6000803e3d6000fd5b505050506040513d6000823e601f3d908101601f1916820160405261091b9190810190611b5d565b9092509050600061092c8882610b9f565b60ff16905061093d88600183610bc3565b9450600061097061094f836001611c0a565b6001848c5161095e9190611c1d565b6109689190611c1d565b8b9190610be7565b6000546040517f4f89059e0000000000000000000000000000000000000000000000000000000081529192506001600160a01b031690634f89059e906109ba908490600401611c30565b602060405180830381865afa1580156109d7573d6000803e3d6000fd5b505050506040513d601f19601f820116820180604052508101906109fb9190611c43565b610a6d5760405162461bcd60e51b815260206004820152602360248201527f506172656e74206e616d65206d7573742062652061207075626c69632073756660448201527f666978000000000000000000000000000000000000000000000000000000000060648201526084016102cd565b610a78816000610c69565b965060008787604051602001610a98929190918252602082015260400190565b60408051808303601f190181529181528151602092830120600081815260019093529082205490925063ffffffff16850360030b1215610b04576040517f2dd6a7af00000000000000000000000000000000000000000000000000000000815260040160405180910390fd5b600081815260016020526040902080547fffffffffffffffffffffffffffffffffffffffffffffffffffffffff000000001663ffffffff8616179055610b4a8a86611026565b5080965050856001600160a01b0316817f87db02a0e483e2818060eddcbb3488ce44e35aff49a70d92c2aa6c8046cf01e28c87604051610b8b929190611c65565b60405180910390a350505050509250925092565b6000828281518110610bb357610bb3611c8d565b016020015160f81c905092915050565b8251600090610bd28385611c0a565b1115610bdd57600080fd5b5091016020012090565b8251606090610bf68385611c0a565b1115610c0157600080fd5b60008267ffffffffffffffff811115610c1c57610c1c611711565b6040519080825280601f01601f191660200182016040528015610c46576020820181803683370190505b50905060208082019086860101610c5e828287611112565b509095945050505050565b600080610c768484610b9f565b60ff16905080600003610c8d575060009050610237565b6000610cad85610c9d8487611c0a565b610ca8906001611c0a565b610c69565b90506000610cc7610cbf866001611c0a565b879085610bc3565b604080516020810185905290810182905290915060600160408051601f198184030181529082905280516020909101207f02571be30000000000000000000000000000000000000000000000000000000082526004820181905294506000906001600160a01b037f000000000000000000000000000000000000000000000000000000000000000016906302571be390602401602060405180830381865afa158015610d77573d6000803e3d6000fd5b505050506040513d601f19601f82011682018060405250810190610d9b9190611a34565b90506001600160a01b0381161580610dbb57506001600160a01b03811630145b610e2d5760405162461bcd60e51b815260206004820152602a60248201527f43616e6e6f7420656e61626c652061206e616d65206f776e656420627920736f60448201527f6d656f6e6520656c73650000000000000000000000000000000000000000000060648201526084016102cd565b6001600160a01b038116301461101c5782610f69576040517f02571be3000000000000000000000000000000000000000000000000000000008152600060048201819052907f00000000000000000000000000000000000000000000000000000000000000006001600160a01b0316906302571be390602401602060405180830381865afa158015610ec3573d6000803e3d6000fd5b505050506040513d601f19601f82011682018060405250810190610ee79190611a34565b6040517f8cb8ecec000000000000000000000000000000000000000000000000000000008152600481018590523060248201529091506001600160a01b03821690638cb8ecec90604401600060405180830381600087803b158015610f4b57600080fd5b505af1158015610f5f573d6000803e3d6000fd5b505050505061101c565b6040517f06ab592300000000000000000000000000000000000000000000000000000000815260048101849052602481018390523060448201527f00000000000000000000000000000000000000000000000000000000000000006001600160a01b0316906306ab5923906064016020604051808303816000875af1158015610ff6573d6000803e3d6000fd5b505050506040513d601f19601f8201168201806040525081019061101a9190611a51565b505b5050505092915050565b600080611046604051806040016040528060608152602001600081525090565b61105e855160056110579190611c0a565b8290611168565b5060408051808201909152600581527f045f656e73000000000000000000000000000000000000000000000000000000602082015261109e9082906111cd565b506110a981866111cd565b5060006110b685826111fb565b90505b80515160208201511015611101576000806110d8878460a0015161125c565b9250905081156110f15794506001935061110b92505050565b50506110fc816112cd565b6110b9565b5060008092509250505b9250929050565b6020811061114a5781518352611129602084611c0a565b9250611136602083611c0a565b9150611143602082611c1d565b9050611112565b905182516020929092036101000a6000190180199091169116179052565b604080518082019091526060815260006020820152611188602083611ca3565b156111b057611198602083611ca3565b6111a3906020611c1d565b6111ad9083611c0a565b91505b506020828101829052604080518085526000815290920101905290565b6040805180820190915260608152600060208201526111f4838460000151518485516113b5565b9392505050565b6112496040518060e001604052806060815260200160008152602001600061ffff168152602001600061ffff168152602001600063ffffffff16815260200160008152602001600081525090565b82815260c08101829052610237816112cd565b6000805b83518310156112c15760006112758585610b9f565b60ff169050611285600185611c0a565b935060008061129587878561149f565b9250905081156112ad5793506001925061110b915050565b6112b78387611c0a565b9550505050611260565b50600093849350915050565b60c081015160208201819052815151116112e45750565b60006112f8826000015183602001516114fc565b82602001516113079190611c0a565b8251909150611316908261155e565b61ffff16604083015261132a600282611c0a565b8251909150611339908261155e565b61ffff16606083015261134d600282611c0a565b825190915061135c9082611586565b63ffffffff166080830152611372600482611c0a565b8251909150600090611384908361155e565b61ffff169050611395600283611c0a565b60a0840181905291506113a88183611c0a565b60c0909301929092525050565b60408051808201909152606081526000602082015282518211156113d857600080fd5b60208501516113e78386611c0a565b111561141a5761141a8561140a876020015187866114059190611c0a565b6115b0565b611415906002611cc5565b6115c7565b6000808651805187602083010193508088870111156114395787860182525b505050602084015b602084106114795780518252611458602083611c0a565b9150611465602082611c0a565b9050611472602085611c1d565b9350611441565b51815160001960208690036101000a019081169019919091161790525083949350505050565b6000806114ac8585611586565b63ffffffff1663613d3078146114c7575060009050806114f4565b602c8310156114db575060009050806114f4565b6114ef856114ea866004611c0a565b6115e4565b915091505b935093915050565b6000815b8351811061151057611510611cdc565b600061151c8583610b9f565b60ff16905061152c816001611c0a565b6115369083611c0a565b915080600003611546575061154c565b50611500565b6115568382611c1d565b949350505050565b815160009061156e836002611c0a565b111561157957600080fd5b50016002015161ffff1690565b8151600090611596836004611c0a565b11156115a157600080fd5b50016004015163ffffffff1690565b6000818311156115c1575081610237565b50919050565b81516115d38383611168565b506115de83826111cd565b50505050565b60008060288385516115f69190611c1d565b10156116075750600090508061110b565b6000835b611616856028611c0a565b8110156116c35760049190911b9060006116308783610b9f565b60ff169050603081101580156116465750603a81105b1561165f57611656603082611c1d565b831792506116b0565b604181101580156116705750604781105b1561168057611656603782611c1d565b606181101580156116915750606781105b156116a157611656605782611c1d565b6000809450945050505061110b565b50806116bb81611cf2565b91505061160b565b50946001945092505050565b6000602082840312156116e157600080fd5b81357fffffffff00000000000000000000000000000000000000000000000000000000811681146111f457600080fd5b634e487b7160e01b600052604160045260246000fd5b6040805190810167ffffffffffffffff8111828210171561174a5761174a611711565b60405290565b604051601f8201601f1916810167ffffffffffffffff8111828210171561177957611779611711565b604052919050565b600067ffffffffffffffff82111561179b5761179b611711565b50601f01601f191660200190565b600082601f8301126117ba57600080fd5b81356117cd6117c882611781565b611750565b8181528460208386010111156117e257600080fd5b816020850160208301376000918101602001919091529392505050565b600082601f83011261181057600080fd5b8135602067ffffffffffffffff8083111561182d5761182d611711565b8260051b61183c838201611750565b938452858101830193838101908886111561185657600080fd5b84880192505b858310156118ed578235848111156118745760008081fd5b88016040818b03601f190181131561188c5760008081fd5b611894611727565b87830135878111156118a65760008081fd5b6118b48d8a838701016117a9565b8252509082013590868211156118ca5760008081fd5b6118d88c89848601016117a9565b8189015284525050918401919084019061185c565b98975050505050505050565b6001600160a01b038116811461190e57600080fd5b50565b6000806000806080858703121561192757600080fd5b843567ffffffffffffffff8082111561193f57600080fd5b61194b888389016117a9565b9550602087013591508082111561196157600080fd5b5061196e878288016117ff565b935050604085013561197f816118f9565b9150606085013561198f816118f9565b939692955090935050565b6000602082840312156119ac57600080fd5b81356111f4816118f9565b6000602082840312156119c957600080fd5b5035919050565b600080604083850312156119e357600080fd5b823567ffffffffffffffff808211156119fb57600080fd5b611a07868387016117a9565b93506020850135915080821115611a1d57600080fd5b50611a2a858286016117ff565b9150509250929050565b600060208284031215611a4657600080fd5b81516111f4816118f9565b600060208284031215611a6357600080fd5b5051919050565b60005b83811015611a85578181015183820152602001611a6d565b50506000910152565b60008151808452611aa6816020860160208601611a6a565b601f01601f19169290920160200192915050565b60006020808301818452808551808352604092508286019150828160051b87010184880160005b83811015611b4f577fffffffffffffffffffffffffffffffffffffffffffffffffffffffffffffffc089840301855281518051878552611b2388860182611a8e565b91890151858303868b0152919050611b3b8183611a8e565b968901969450505090860190600101611ae1565b509098975050505050505050565b60008060408385031215611b7057600080fd5b825167ffffffffffffffff811115611b8757600080fd5b8301601f81018513611b9857600080fd5b8051611ba66117c882611781565b818152866020838501011115611bbb57600080fd5b611bcc826020830160208601611a6a565b809450505050602083015163ffffffff81168114611be957600080fd5b809150509250929050565b634e487b7160e01b600052601160045260246000fd5b8082018082111561023757610237611bf4565b8181038181111561023757610237611bf4565b6020815260006111f46020830184611a8e565b600060208284031215611c5557600080fd5b815180151581146111f457600080fd5b604081526000611c786040830185611a8e565b905063ffffffff831660208301529392505050565b634e487b7160e01b600052603260045260246000fd5b600082611cc057634e487b7160e01b600052601260045260246000fd5b500690565b808202811582820484141761023757610237611bf4565b634e487b7160e01b600052600160045260246000fd5b60006000198203611d0557611d05611bf4565b506001019056fea264697066735822122086eee0e4ce74404c003b02d186c28603ddf236622ff290c29729cc4e797bc4bd64736f6c63430008110033",
  "devdoc": {
    "details": "An ENS registrar that allows the owner of a DNS name to claim the      corresponding name in ENS.",
    "kind": "dev",
    "methods": {
      "proveAndClaim(bytes,(bytes,bytes)[])": {
        "details": "Submits proofs to the DNSSEC oracle, then claims a name using those proofs.",
        "params": {
          "input": "A chain of signed DNS RRSETs ending with a text record.",
          "name": "The name to claim, in DNS wire format."
        }
      }
    },
    "version": 1
  },
  "userdoc": {
    "kind": "user",
    "methods": {},
    "version": 1
  },
  "storageLayout": {
    "storage": [
      {
        "astId": 4425,
        "contract": "contracts/dnsregistrar/DNSRegistrar.sol:DNSRegistrar",
        "label": "suffixes",
        "offset": 0,
        "slot": "0",
        "type": "t_contract(PublicSuffixList)4992"
      },
      {
        "astId": 4429,
        "contract": "contracts/dnsregistrar/DNSRegistrar.sol:DNSRegistrar",
        "label": "inceptions",
        "offset": 0,
        "slot": "1",
        "type": "t_mapping(t_bytes32,t_uint32)"
      }
    ],
    "types": {
      "t_bytes32": {
        "encoding": "inplace",
        "label": "bytes32",
        "numberOfBytes": "32"
      },
      "t_contract(PublicSuffixList)4992": {
        "encoding": "inplace",
        "label": "contract PublicSuffixList",
        "numberOfBytes": "20"
      },
      "t_mapping(t_bytes32,t_uint32)": {
        "encoding": "mapping",
        "key": "t_bytes32",
        "label": "mapping(bytes32 => uint32)",
        "numberOfBytes": "32",
        "value": "t_uint32"
      },
      "t_uint32": {
        "encoding": "inplace",
        "label": "uint32",
        "numberOfBytes": "4"
      }
    }
  }
}