{
  "address": "0x7e6912F18940c67C666Fe53D41001c0cc5de706e",
  "abi": [
    {
      "inputs": [
        {
          "internalType": "bytes",
          "name": "_anchors",
          "type": "bytes"
        }
      ],
      "stateMutability": "nonpayable",
      "type": "constructor"
    },
    {
      "inputs": [
        {
          "internalType": "uint16",
          "name": "class",
          "type": "uint16"
        }
      ],
      "name": "InvalidClass",
      "type": "error"
    },
    {
      "inputs": [
        {
          "internalType": "bytes",
          "name": "name",
          "type": "bytes"
        },
        {
          "internalType": "uint256",
          "name": "labelsExpected",
          "type": "uint256"
        }
      ],
      "name": "InvalidLabelCount",
      "type": "error"
    },
    {
      "inputs": [
        {
          "internalType": "uint16",
          "name": "proofType",
          "type": "uint16"
        }
      ],
      "name": "InvalidProofType",
      "type": "error"
    },
    {
      "inputs": [],
      "name": "InvalidRRSet",
      "type": "error"
    },
    {
      "inputs": [
        {
          "internalType": "bytes",
          "name": "rrsetName",
          "type": "bytes"
        },
        {
          "internalType": "bytes",
          "name": "signerName",
          "type": "bytes"
        }
      ],
      "name": "InvalidSignerName",
      "type": "error"
    },
    {
      "inputs": [
        {
          "internalType": "bytes",
          "name": "signerName",
          "type": "bytes"
        }
      ],
      "name": "NoMatchingProof",
      "type": "error"
    },
    {
      "inputs": [
        {
          "internalType": "bytes",
          "name": "signerName",
          "type": "bytes"
        },
        {
          "internalType": "bytes",
          "name": "proofName",
          "type": "bytes"
        }
      ],
      "name": "ProofNameMismatch",
      "type": "error"
    },
    {
      "inputs": [
        {
          "internalType": "uint32",
          "name": "expiration",
          "type": "uint32"
        },
        {
          "internalType": "uint32",
          "name": "now",
          "type": "uint32"
        }
      ],
      "name": "SignatureExpired",
      "type": "error"
    },
    {
      "inputs": [
        {
          "internalType": "uint32",
          "name": "inception",
          "type": "uint32"
        },
        {
          "internalType": "uint32",
          "name": "now",
          "type": "uint32"
        }
      ],
      "name": "SignatureNotValidYet",
      "type": "error"
    },
    {
      "inputs": [
        {
          "internalType": "uint16",
          "name": "rrsetType",
          "type": "uint16"
        },
        {
          "internalType": "uint16",
          "name": "sigType",
          "type": "uint16"
        }
      ],
      "name": "SignatureTypeMismatch",
      "type": "error"
    },
    {
      "anonymous": false,
      "inputs": [
        {
          "indexed": false,
          "internalType": "uint8",
          "name": "id",
          "type": "uint8"
        },
        {
          "indexed": false,
          "internalType": "address",
          "name": "addr",
          "type": "address"
        }
      ],
      "name": "AlgorithmUpdated",
      "type": "event"
    },
    {
      "anonymous": false,
      "inputs": [
        {
          "indexed": false,
          "internalType": "uint8",
          "name": "id",
          "type": "uint8"
        },
        {
          "indexed": false,
          "internalType": "address",
          "name": "addr",
          "type": "address"
        }
      ],
      "name": "DigestUpdated",
      "type": "event"
    },
    {
      "inputs": [
        {
          "internalType": "uint8",
          "name": "",
          "type": "uint8"
        }
      ],
      "name": "algorithms",
      "outputs": [
        {
          "internalType": "contract Algorithm",
          "name": "",
          "type": "address"
        }
      ],
      "stateMutability": "view",
      "type": "function"
    },
    {
      "inputs": [],
      "name": "anchors",
      "outputs": [
        {
          "internalType": "bytes",
          "name": "",
          "type": "bytes"
        }
      ],
      "stateMutability": "view",
      "type": "function"
    },
    {
      "inputs": [
        {
          "internalType": "uint8",
          "name": "",
          "type": "uint8"
        }
      ],
      "name": "digests",
      "outputs": [
        {
          "internalType": "contract Digest",
          "name": "",
          "type": "address"
        }
      ],
      "stateMutability": "view",
      "type": "function"
    },
    {
      "inputs": [],
      "name": "owner",
      "outputs": [
        {
          "internalType": "address",
          "name": "",
          "type": "address"
        }
      ],
      "stateMutability": "view",
      "type": "function"
    },
    {
      "inputs": [
        {
          "internalType": "uint8",
          "name": "id",
          "type": "uint8"
        },
        {
          "internalType": "contract Algorithm",
          "name": "algo",
          "type": "address"
        }
      ],
      "name": "setAlgorithm",
      "outputs": [],
      "stateMutability": "nonpayable",
      "type": "function"
    },
    {
      "inputs": [
        {
          "internalType": "uint8",
          "name": "id",
          "type": "uint8"
        },
        {
          "internalType": "contract Digest",
          "name": "digest",
          "type": "address"
        }
      ],
      "name": "setDigest",
      "outputs": [],
      "stateMutability": "nonpayable",
      "type": "function"
    },
    {
      "inputs": [
        {
          "internalType": "address",
          "name": "newOwner",
          "type": "address"
        }
      ],
      "name": "setOwner",
      "outputs": [],
      "stateMutability": "nonpayable",
      "type": "function"
    },
    {
      "inputs": [
        {
          "components": [
            {
              "internalType": "bytes",
              "name": "rrset",
              "type": "bytes"
            },
            {
              "internalType": "bytes",
              "name": "sig",
              "type": "bytes"
            }
          ],
          "internalType": "struct DNSSEC.RRSetWithSignature[]",
          "name": "input",
          "type": "tuple[]"
        },
        {
          "internalType": "uint256",
          "name": "now",
          "type": "uint256"
        }
      ],
      "name": "verifyRRSet",
      "outputs": [
        {
          "internalType": "bytes",
          "name": "rrs",
          "type": "bytes"
        },
        {
          "internalType": "uint32",
          "name": "inception",
          "type": "uint32"
        }
      ],
      "stateMutability": "view",
      "type": "function"
    },
    {
      "inputs": [
        {
          "components": [
            {
              "internalType": "bytes",
              "name": "rrset",
              "type": "bytes"
            },
            {
              "internalType": "bytes",
              "name": "sig",
              "type": "bytes"
            }
          ],
          "internalType": "struct DNSSEC.RRSetWithSignature[]",
          "name": "input",
          "type": "tuple[]"
        }
      ],
      "name": "verifyRRSet",
      "outputs": [
        {
          "internalType": "bytes",
          "name": "rrs",
          "type": "bytes"
        },
        {
          "internalType": "uint32",
          "name": "inception",
          "type": "uint32"
        }
      ],
      "stateMutability": "view",
      "type": "function"
    }
  ],
  "transactionHash": "0xeee8cebfadff9828f2627fb910fb962c92e14b069c0c568b4ef4e4e05306261f",
  "args": [
    "0x00002b000100000e1000244a5c080249aac11d7b6f6446702e54a1607371607a1a41855200fd2ce1cdde32f24e8fb500002b000100000e1000244f660802e06d44b80b8f1d39a95c0b0d7c65d08458e880409bbc683457104237c7f8ec8d"
  ],
  "numDeployments": 1,
  "solcInputHash": "20d0cf755bdff128bd31fe4809ab35fa",
  "bytecode": "0x60806040523480156200001157600080fd5b506040516200212738038062002127833981016040819052620000349162000072565b600180546001600160a01b031916331790556000620000548282620001d6565b5050620002a2565b634e487b7160e01b600052604160045260246000fd5b600060208083850312156200008657600080fd5b82516001600160401b03808211156200009e57600080fd5b818501915085601f830112620000b357600080fd5b815181811115620000c857620000c86200005c565b604051601f8201601f19908116603f01168101908382118183101715620000f357620000f36200005c565b8160405282815288868487010111156200010c57600080fd5b600093505b8284101562000130578484018601518185018701529285019262000111565b600086848301015280965050505050505092915050565b600181811c908216806200015c57607f821691505b6020821081036200017d57634e487b7160e01b600052602260045260246000fd5b50919050565b601f821115620001d157600081815260208120601f850160051c81016020861015620001ac5750805b601f850160051c820191505b81811015620001cd57828155600101620001b8565b5050505b505050565b81516001600160401b03811115620001f257620001f26200005c565b6200020a8162000203845462000147565b8462000183565b602080601f831160018114620002425760008415620002295750858301515b600019600386901b1c1916600185901b178555620001cd565b600085815260208120601f198616915b82811015620002735788860151825594840194600190910190840162000252565b5085821015620002925787850151600019600388901b60f8161c191681555b5050505050600190811b01905550565b611e7580620002b26000396000f3fe608060405234801561001057600080fd5b50600436106100a35760003560e01c806373cc48a61161007657806398d35f201161005b57806398d35f2014610161578063bdf95fef14610176578063c327deef1461018957600080fd5b806373cc48a61461010d5780638da5cb5b1461014e57600080fd5b8063020ed8d3146100a857806313af4035146100bd57806328e7677d146100d0578063440f3d42146100e3575b600080fd5b6100bb6100b6366004611947565b6101b2565b005b6100bb6100cb36600461197e565b61024c565b6100bb6100de366004611947565b61029d565b6100f66100f1366004611b75565b61032f565b604051610104929190611c00565b60405180910390f35b61013661011b366004611c28565b6003602052600090815260409020546001600160a01b031681565b6040516001600160a01b039091168152602001610104565b600154610136906001600160a01b031681565b610169610421565b6040516101049190611c43565b6100f6610184366004611c56565b6104af565b610136610197366004611c28565b6002602052600090815260409020546001600160a01b031681565b6001546001600160a01b031633146101c957600080fd5b60ff821660008181526002602090815260409182902080547fffffffffffffffffffffffff0000000000000000000000000000000000000000166001600160a01b0386169081179091558251938452908301527ff73c3c226af96b7f1ba666a21b3ceaf2be3ee6a365e3178fd9cd1eaae0075aa891015b60405180910390a15050565b6001546001600160a01b0316331461026357600080fd5b600180547fffffffffffffffffffffffff0000000000000000000000000000000000000000166001600160a01b0392909216919091179055565b6001546001600160a01b031633146102b457600080fd5b60ff821660008181526003602090815260409182902080547fffffffffffffffffffffffff0000000000000000000000000000000000000000166001600160a01b0386169081179091558251938452908301527f2fcc274c3b72dd483ab201bfa87295e3817e8b9b10693219873b722ca1af00c79101610240565b60606000806000805461034190611c8b565b80601f016020809104026020016040519081016040528092919081815260200182805461036d90611c8b565b80156103ba5780601f1061038f576101008083540402835291602001916103ba565b820191906000526020600020905b81548152906001019060200180831161039d57829003601f168201915b5050505050905060005b85518110156104175760006103f38783815181106103e4576103e4611cbf565b602002602001015184886104c6565b61010081015160a0909101519450925081905061040f81611ceb565b9150506103c4565b5091509250929050565b6000805461042e90611c8b565b80601f016020809104026020016040519081016040528092919081815260200182805461045a90611c8b565b80156104a75780601f1061047c576101008083540402835291602001916104a7565b820191906000526020600020905b81548152906001019060200180831161048a57829003601f168201915b505050505081565b606060006104bd834261032f565b91509150915091565b604080516101408101825260008082526020820181905291810182905260608082018390526080820183905260a0820183905260c082019290925260e081018290526101008101829052610120810191909152835161052490610668565b905060006105368283600001516107aa565b604083015190915060ff1661054c826000610907565b14610594578082604001516040517fe861b2bd00000000000000000000000000000000000000000000000000000000815260040161058b929190611d05565b60405180910390fd5b6101208201819052608082015160009084900360030b12156105f85760808201516040517fa784f87e00000000000000000000000000000000000000000000000000000000815263ffffffff9182166004820152908416602482015260440161058b565b60a0820151600090840360030b12156106535760a08201516040517fbd41036a00000000000000000000000000000000000000000000000000000000815263ffffffff9182166004820152908416602482015260440161058b565b61065f8183878761096d565b505b9392505050565b604080516101408101825260008082526020820181905291810182905260608082018390526080820183905260a0820183905260c0820183905260e082018190526101008201819052610120820152906106c3908390610a50565b61ffff1681526106d4826002610a78565b60ff1660208201526106e7826003610a78565b60ff1660408201526106fa826004610a9c565b63ffffffff9081166060830152610716908390600890610a9c16565b63ffffffff9081166080830152610732908390600c90610a9c16565b63ffffffff90811660a083015261074e908390601090610a5016565b61ffff1660c0820152610762826012610ac6565b60e082018190525161079f90610779906012611d2a565b8260e00151516012855161078d9190611d3d565b6107979190611d3d565b849190610ae9565b610100820152919050565b606060006107b784610b6b565b90505b8051516020820151101561090057606081015161ffff166001146108165760608101516040517f98a5f31a00000000000000000000000000000000000000000000000000000000815261ffff909116600482015260240161058b565b815160000361082f5761082881610bc9565b9150610899565b6020810151815161083f91610bea565b82511415806108625750805160208201518351610860928592600092610c44565b155b15610899576040517fcbceee6f00000000000000000000000000000000000000000000000000000000815260040160405180910390fd5b8261ffff16816040015161ffff16146108f25760408082015190517fa6ff8a8a00000000000000000000000000000000000000000000000000000000815261ffff9182166004820152908416602482015260440161058b565b6108fb81610c67565b6107ba565b5092915050565b6000805b8351831061091b5761091b611d50565b60006109278585610a78565b60ff169050610937816001611d2a565b6109419085611d2a565b9350806000036109515750610964565b61095c600183611d2a565b91505061090b565b90505b92915050565b60e083015161097d908590610d4f565b6109ba5760e08301516040517feaafc59b00000000000000000000000000000000000000000000000000000000815261058b918691600401611d66565b60006109c68282610dac565b9050602b61ffff16816040015161ffff16036109ec576109e7848483610e0d565b610a49565b603061ffff16816040015161ffff1603610a0b576109e7848483610f2c565b60408082015190517f61529e8700000000000000000000000000000000000000000000000000000000815261ffff909116600482015260240161058b565b5050505050565b8151600090610a60836002611d2a565b1115610a6b57600080fd5b50016002015161ffff1690565b6000828281518110610a8c57610a8c611cbf565b016020015160f81c905092915050565b8151600090610aac836004611d2a565b1115610ab757600080fd5b50016004015163ffffffff1690565b60606000610ad48484610bea565b9050610ae1848483610ae9565b949350505050565b8251606090610af88385611d2a565b1115610b0357600080fd5b60008267ffffffffffffffff811115610b1e57610b1e61199b565b6040519080825280601f01601f191660200182016040528015610b48576020820181803683370190505b50905060208082019086860101610b60828287611026565b509095945050505050565b610bb96040518060e001604052806060815260200160008152602001600061ffff168152602001600061ffff168152602001600063ffffffff16815260200160008152602001600081525090565b6109678261010001516000610dac565b6020810151815160609161096791610be19082610bea565b84519190610ae9565b6000815b83518110610bfe57610bfe611d50565b6000610c0a8583610a78565b60ff169050610c1a816001611d2a565b610c249083611d2a565b915080600003610c345750610c3a565b50610bee565b610ae18382611d3d565b6000610c5184848461107c565b610c5c87878561107c565b149695505050505050565b60c08101516020820181905281515111610c7e5750565b6000610c9282600001518360200151610bea565b8260200151610ca19190611d2a565b8251909150610cb09082610a50565b61ffff166040830152610cc4600282611d2a565b8251909150610cd39082610a50565b61ffff166060830152610ce7600282611d2a565b8251909150610cf69082610a9c565b63ffffffff166080830152610d0c600482611d2a565b8251909150600090610d1e9083610a50565b61ffff169050610d2f600283611d2a565b60a084018190529150610d428183611d2a565b60c0909301929092525050565b60008080610d5d8582610907565b90506000610d6c856000610907565b90505b80821115610d9557610d8186846110a0565b925081610d8d81611d94565b925050610d6f565b610da286848760006110c4565b9695505050505050565b610dfa6040518060e001604052806060815260200160008152602001600061ffff168152602001600061ffff168152602001600063ffffffff16815260200160008152602001600081525090565b82815260c0810182905261096781610c67565b60208101516000610e1d85610b6b565b90505b80515160208201511015610ef357604081015161ffff16603014610e7c5760408082015190517f61529e8700000000000000000000000000000000000000000000000000000000815261ffff909116600482015260240161058b565b6000610e87826110f9565b90506000610ea260008351846111159092919063ffffffff16565b9050610eb0818389896111b3565b15610ee357610ec58760e001518683856112f2565b15610ed35750505050505050565b60c08501849052610ee385610c67565b5050610eee81610c67565b610e20565b508360e001516040517f06cde0f300000000000000000000000000000000000000000000000000000000815260040161058b9190611c43565b80515160208201511015610fee576000610f4582610bc9565b9050610f5e8460e001518261144890919063ffffffff16565b610f9c578360e00151816040517fd700ae7e00000000000000000000000000000000000000000000000000000000815260040161058b929190611d66565b6000610fa7836110f9565b90506000610fc260008351846111159092919063ffffffff16565b9050610fd0818388886111b3565b15610fdd57505050505050565b505050610fe981610c67565b610f2c565b8260e001516040517f06cde0f300000000000000000000000000000000000000000000000000000000815260040161058b9190611c43565b6020811061105e578151835261103d602084611d2a565b925061104a602083611d2a565b9150611057602082611d3d565b9050611026565b905182516020929092036101000a6000190180199091169116179052565b825160009061108b8385611d2a565b111561109657600080fd5b5091016020012090565b60006110ac8383610a78565b60ff166110ba836001611d2a565b6109649190611d2a565b60006110dd83838486516110d89190611d3d565b61107c565b6110ef86868789516110d89190611d3d565b1495945050505050565b60a081015160c082015160609161096791610be1908290611d3d565b604080516080810182526000808252602082018190529181019190915260608082015261114d611146600085611d2a565b8590610a50565b61ffff168152611168611161600285611d2a565b8590610a78565b60ff16602082015261117e611161600385611d2a565b60ff1660408201526111a7611194600485611d2a565b61119f600485611d3d565b869190610ae9565b60608201529392505050565b6000846020015160ff166003146111cc57506000610ae1565b826020015160ff16856040015160ff16146111e957506000610ae1565b60006111f485611466565b90508360c0015161ffff168161ffff1614611213576000915050610ae1565b85516101001660000361122a576000915050610ae1565b60408087015160ff166000908152600260205220546001600160a01b03168061125857600092505050610ae1565b835160208501516040517fde8f50a10000000000000000000000000000000000000000000000000000000081526001600160a01b0384169263de8f50a1926112a6928b929190600401611dab565b602060405180830381865afa1580156112c3573d6000803e3d6000fd5b505050506040513d601f19601f820116820180604052508101906112e79190611de4565b979650505050505050565b6000806112fe83611466565b90505b8451516020860151101561143c57600061131a86610bc9565b90506113268188611448565b6113605786816040517fd700ae7e00000000000000000000000000000000000000000000000000000000815260040161058b929190611d66565b60a086015160c08701516000916113859161137c908290611d3d565b89519190611115565b90508261ffff16816000015161ffff16146113a157505061142e565b856040015160ff16816020015160ff16146113bd57505061142e565b6040805180820190915260608152600060208201526113ea86518a516113e39190611d2a565b82906116aa565b506113f5818a61170f565b50611400818761170f565b50611418826040015182600001518460600151611736565b1561142a576001945050505050610ae1565b5050505b61143785610c67565b611301565b50600095945050505050565b60008151835114801561096457506109648360008460008751610c44565b6000612000825111156114d5576040517f08c379a000000000000000000000000000000000000000000000000000000000815260206004820152601760248201527f4c6f6e67206b657973206e6f74207065726d6974746564000000000000000000604482015260640161058b565b60008060005b8451601f0181101561154a57600081602087010151905085518260200111156115105785518290036008026101000390811c901b5b7eff00ff00ff00ff00ff00ff00ff00ff00ff00ff00ff00ff00ff00ff00ff00ff600882901c811694909401931691909101906020016114db565b506010827fffff0000ffff0000ffff0000ffff0000ffff0000ffff0000ffff0000ffff000016901c827dffff0000ffff0000ffff0000ffff0000ffff0000ffff0000ffff0000ffff160191506010817fffff0000ffff0000ffff0000ffff0000ffff0000ffff0000ffff0000ffff000016901c817dffff0000ffff0000ffff0000ffff0000ffff0000ffff0000ffff0000ffff1601905080600883901b0191506020827fffffffff00000000ffffffff00000000ffffffff00000000ffffffff0000000016901c827bffffffff00000000ffffffff00000000ffffffff00000000ffffffff160191506040827fffffffffffffffff0000000000000000ffffffffffffffff000000000000000016901c8277ffffffffffffffff0000000000000000ffffffffffffffff16019150608082901c826fffffffffffffffffffffffffffffffff16019150601082901c61ffff16820191508192505050919050565b6040805180820190915260608152600060208201526116ca602083611e06565b156116f2576116da602083611e06565b6116e5906020611d3d565b6116ef9083611d2a565b91505b506020828101829052604080518085526000815290920101905290565b604080518082019091526060815260006020820152610964838460000151518485516117fb565b60ff83166000908152600360205260408120546001600160a01b031661175e57506000610661565b60ff8416600090815260036020526040908190205490517ff7e83aee0000000000000000000000000000000000000000000000000000000081526001600160a01b039091169063f7e83aee906117ba9086908690600401611d66565b602060405180830381865afa1580156117d7573d6000803e3d6000fd5b505050506040513d601f19601f82011682018060405250810190610ae19190611de4565b604080518082019091526060815260006020820152825182111561181e57600080fd5b602085015161182d8386611d2a565b111561186057611860856118508760200151878661184b9190611d2a565b6118e5565b61185b906002611e28565b6118fc565b60008086518051876020830101935080888701111561187f5787860182525b505050602084015b602084106118bf578051825261189e602083611d2a565b91506118ab602082611d2a565b90506118b8602085611d3d565b9350611887565b51815160001960208690036101000a019081169019919091161790525083949350505050565b6000818311156118f6575081610967565b50919050565b815161190883836116aa565b50611913838261170f565b50505050565b803560ff8116811461192a57600080fd5b919050565b6001600160a01b038116811461194457600080fd5b50565b6000806040838503121561195a57600080fd5b61196383611919565b915060208301356119738161192f565b809150509250929050565b60006020828403121561199057600080fd5b81356109648161192f565b634e487b7160e01b600052604160045260246000fd5b6040805190810167ffffffffffffffff811182821017156119d4576119d461199b565b60405290565b604051601f8201601f1916810167ffffffffffffffff81118282101715611a0357611a0361199b565b604052919050565b600082601f830112611a1c57600080fd5b813567ffffffffffffffff811115611a3657611a3661199b565b611a496020601f19601f840116016119da565b818152846020838601011115611a5e57600080fd5b816020850160208301376000918101602001919091529392505050565b600082601f830112611a8c57600080fd5b8135602067ffffffffffffffff80831115611aa957611aa961199b565b8260051b611ab88382016119da565b9384528581018301938381019088861115611ad257600080fd5b84880192505b85831015611b6957823584811115611af05760008081fd5b88016040818b03601f1901811315611b085760008081fd5b611b106119b1565b8783013587811115611b225760008081fd5b611b308d8a83870101611a0b565b825250908201359086821115611b465760008081fd5b611b548c8984860101611a0b565b81890152845250509184019190840190611ad8565b98975050505050505050565b60008060408385031215611b8857600080fd5b823567ffffffffffffffff811115611b9f57600080fd5b611bab85828601611a7b565b95602094909401359450505050565b6000815180845260005b81811015611be057602081850181015186830182015201611bc4565b506000602082860101526020601f19601f83011685010191505092915050565b604081526000611c136040830185611bba565b905063ffffffff831660208301529392505050565b600060208284031215611c3a57600080fd5b61096482611919565b6020815260006109646020830184611bba565b600060208284031215611c6857600080fd5b813567ffffffffffffffff811115611c7f57600080fd5b610ae184828501611a7b565b600181811c90821680611c9f57607f821691505b6020821081036118f657634e487b7160e01b600052602260045260246000fd5b634e487b7160e01b600052603260045260246000fd5b634e487b7160e01b600052601160045260246000fd5b60006000198203611cfe57611cfe611cd5565b5060010190565b604081526000611d186040830185611bba565b905060ff831660208301529392505050565b8082018082111561096757610967611cd5565b8181038181111561096757610967611cd5565b634e487b7160e01b600052600160045260246000fd5b604081526000611d796040830185611bba565b8281036020840152611d8b8185611bba565b95945050505050565b600081611da357611da3611cd5565b506000190190565b606081526000611dbe6060830186611bba565b8281036020840152611dd08186611bba565b90508281036040840152610da28185611bba565b600060208284031215611df657600080fd5b8151801515811461096457600080fd5b600082611e2357634e487b7160e01b600052601260045260246000fd5b500690565b808202811582820484141761096757610967611cd556fea26469706673582212202c41177db8491886a923e0bb6381105947ecdecf84bd07371842a1a377550ff464736f6c63430008110033",
  "devdoc": {
    "kind": "dev",
    "methods": {
      "constructor": {
        "details": "Constructor.",
        "params": {
          "_anchors": "The binary format RR entries for the root DS records."
        }
      },
      "setAlgorithm(uint8,address)": {
        "details": "Sets the contract address for a signature verification algorithm.      Callable only by the owner.",
        "params": {
          "algo": "The address of the algorithm contract.",
          "id": "The algorithm ID"
        }
      },
      "setDigest(uint8,address)": {
        "details": "Sets the contract address for a digest verification algorithm.      Callable only by the owner.",
        "params": {
          "digest": "The address of the digest contract.",
          "id": "The digest ID"
        }
      },
      "verifyRRSet((bytes,bytes)[])": {
        "details": "Takes a chain of signed DNS records, verifies them, and returns the data from the last record set in the chain.      Reverts if the records do not form an unbroken chain of trust to the DNSSEC anchor records.",
        "params": {
          "input": "A list of signed RRSets."
        },
        "returns": {
          "inception": "The inception time of the signed record set.",
          "rrs": "The RRData from the last RRSet in the chain."
        }
      },
      "verifyRRSet((bytes,bytes)[],uint256)": {
        "details": "Takes a chain of signed DNS records, verifies them, and returns the data from the last record set in the chain.      Reverts if the records do not form an unbroken chain of trust to the DNSSEC anchor records.",
        "params": {
          "input": "A list of signed RRSets.",
          "now": "The Unix timestamp to validate the records at."
        },
        "returns": {
          "inception": "The inception time of the signed record set.",
          "rrs": "The RRData from the last RRSet in the chain."
        }
      }
    },
    "version": 1
  },
  "userdoc": {
    "kind": "user",
    "methods": {},
    "version": 1
  },
  "storageLayout": {
    "storage": [
      {
        "astId": 6113,
        "contract": "contracts/dnssec-oracle/DNSSECImpl.sol:DNSSECImpl",
        "label": "anchors",
        "offset": 0,
        "slot": "0",
        "type": "t_bytes_storage"
      },
      {
        "astId": 7090,
        "contract": "contracts/dnssec-oracle/DNSSECImpl.sol:DNSSECImpl",
        "label": "owner",
        "offset": 0,
        "slot": "1",
        "type": "t_address"
      },
      {
        "astId": 6245,
        "contract": "contracts/dnssec-oracle/DNSSECImpl.sol:DNSSECImpl",
        "label": "algorithms",
        "offset": 0,
        "slot": "2",
        "type": "t_mapping(t_uint8,t_contract(Algorithm)8253)"
      },
      {
        "astId": 6250,
        "contract": "contracts/dnssec-oracle/DNSSECImpl.sol:DNSSECImpl",
        "label": "digests",
        "offset": 0,
        "slot": "3",
        "type": "t_mapping(t_uint8,t_contract(Digest)10094)"
      }
    ],
    "types": {
      "t_address": {
        "encoding": "inplace",
        "label": "address",
        "numberOfBytes": "20"
      },
      "t_bytes_storage": {
        "encoding": "bytes",
        "label": "bytes",
        "numberOfBytes": "32"
      },
      "t_contract(Algorithm)8253": {
        "encoding": "inplace",
        "label": "contract Algorithm",
        "numberOfBytes": "20"
      },
      "t_contract(Digest)10094": {
        "encoding": "inplace",
        "label": "contract Digest",
        "numberOfBytes": "20"
      },
      "t_mapping(t_uint8,t_contract(Algorithm)8253)": {
        "encoding": "mapping",
        "key": "t_uint8",
        "label": "mapping(uint8 => contract Algorithm)",
        "numberOfBytes": "32",
        "value": "t_contract(Algorithm)8253"
      },
      "t_mapping(t_uint8,t_contract(Digest)10094)": {
        "encoding": "mapping",
        "key": "t_uint8",
        "label": "mapping(uint8 => contract Digest)",
        "numberOfBytes": "32",
        "value": "t_contract(Digest)10094"
      },
      "t_uint8": {
        "encoding": "inplace",
        "label": "uint8",
        "numberOfBytes": "1"
      }
    }
  }
}