{
  "address": "0x123180Fb502aAc5C6537Bee4488515908df60019",
  "abi": [
    {
      "inputs": [
        {
          "internalType": "bytes",
          "name": "",
          "type": "bytes"
        },
        {
          "internalType": "bytes",
          "name": "",
          "type": "bytes"
        }
      ],
      "name": "verify",
      "outputs": [
        {
          "internalType": "bool",
          "name": "",
          "type": "bool"
        }
      ],
      "stateMutability": "pure",
      "type": "function"
    }
  ],
  "transactionHash": "0x0ac666aaad93c9bff1febf32c003daf75374674760064e11f520d4ef4803763e",
  "args": [],
  "numDeployments": 2,
  "solcInputHash": "20d0cf755bdff128bd31fe4809ab35fa",
  "bytecode": "0x608060405234801561001057600080fd5b50610147806100206000396000f3fe608060405234801561001057600080fd5b506004361061002b5760003560e01c8063f7e83aee14610030575b600080fd5b61004861003e3660046100a5565b6001949350505050565b604051901515815260200160405180910390f35b60008083601f84011261006e57600080fd5b50813567ffffffffffffffff81111561008657600080fd5b60208301915083602082850101111561009e57600080fd5b9250929050565b600080600080604085870312156100bb57600080fd5b843567ffffffffffffffff808211156100d357600080fd5b6100df8883890161005c565b909650945060208701359150808211156100f857600080fd5b506101058782880161005c565b9598949750955050505056fea2646970667358221220e970535171036001d7ac1a2758f82d057a79e6a22506cec412ccfe0ac6df317064736f6c63430008110033",
  "devdoc": {
    "details": "Implements a dummy DNSSEC digest that approves all hashes, for testing.",
    "kind": "dev",
    "methods": {},
    "version": 1
  },
  "userdoc": {
    "kind": "user",
    "methods": {},
    "version": 1
  },
  "storageLayout": {
    "storage": [],
    "types": null
  }
}