{
  "address": "0x0A21FA7C8C094D338Ea48e04d416ae926195017c",
  "abi": [
    {
      "inputs": [
        {
          "internalType": "contract ENS",
          "name": "_ens",
          "type": "address"
        },
        {
          "internalType": "contract IBaseRegistrar",
          "name": "_registrar",
          "type": "address"
        },
        {
          "internalType": "contract IMetadataService",
          "name": "_metadataService",
          "type": "address"
        }
      ],
      "stateMutability": "nonpayable",
      "type": "constructor"
    },
    {
      "inputs": [],
      "name": "CannotUpgrade",
      "type": "error"
    },
    {
      "inputs": [],
      "name": "IncompatibleParent",
      "type": "error"
    },
    {
      "inputs": [
        {
          "internalType": "address",
          "name": "owner",
          "type": "address"
        }
      ],
      "name": "IncorrectTargetOwner",
      "type": "error"
    },
    {
      "inputs": [],
      "name": "IncorrectTokenType",
      "type": "error"
    },
    {
      "inputs": [
        {
          "internalType": "bytes32",
          "name": "labelHash",
          "type": "bytes32"
        },
        {
          "internalType": "bytes32",
          "name": "expectedLabelhash",
          "type": "bytes32"
        }
      ],
      "name": "LabelMismatch",
      "type": "error"
    },
    {
      "inputs": [
        {
          "internalType": "string",
          "name": "label",
          "type": "string"
        }
      ],
      "name": "LabelTooLong",
      "type": "error"
    },
    {
      "inputs": [],
      "name": "LabelTooShort",
      "type": "error"
    },
    {
      "inputs": [
        {
          "internalType": "bytes32",
          "name": "node",
          "type": "bytes32"
        }
      ],
      "name": "OperationProhibited",
      "type": "error"
    },
    {
      "inputs": [
        {
          "internalType": "bytes32",
          "name": "node",
          "type": "bytes32"
        },
        {
          "internalType": "address",
          "name": "addr",
          "type": "address"
        }
      ],
      "name": "Unauthorised",
      "type": "error"
    },
    {
      "anonymous": false,
      "inputs": [
        {
          "indexed": true,
          "internalType": "address",
          "name": "account",
          "type": "address"
        },
        {
          "indexed": true,
          "internalType": "address",
          "name": "operator",
          "type": "address"
        },
        {
          "indexed": false,
          "internalType": "bool",
          "name": "approved",
          "type": "bool"
        }
      ],
      "name": "ApprovalForAll",
      "type": "event"
    },
    {
      "anonymous": false,
      "inputs": [
        {
          "indexed": true,
          "internalType": "address",
          "name": "controller",
          "type": "address"
        },
        {
          "indexed": false,
          "internalType": "bool",
          "name": "active",
          "type": "bool"
        }
      ],
      "name": "ControllerChanged",
      "type": "event"
    },
    {
      "anonymous": false,
      "inputs": [
        {
          "indexed": true,
          "internalType": "bytes32",
          "name": "node",
          "type": "bytes32"
        },
        {
          "indexed": false,
          "internalType": "uint32",
          "name": "fuses",
          "type": "uint32"
        },
        {
          "indexed": false,
          "internalType": "uint64",
          "name": "expiry",
          "type": "uint64"
        }
      ],
      "name": "FusesSet",
      "type": "event"
    },
    {
      "anonymous": false,
      "inputs": [
        {
          "indexed": true,
          "internalType": "bytes32",
          "name": "node",
          "type": "bytes32"
        },
        {
          "indexed": false,
          "internalType": "address",
          "name": "owner",
          "type": "address"
        }
      ],
      "name": "NameUnwrapped",
      "type": "event"
    },
    {
      "anonymous": false,
      "inputs": [
        {
          "indexed": true,
          "internalType": "bytes32",
          "name": "node",
          "type": "bytes32"
        },
        {
          "indexed": false,
          "internalType": "bytes",
          "name": "name",
          "type": "bytes"
        },
        {
          "indexed": false,
          "internalType": "address",
          "name": "owner",
          "type": "address"
        },
        {
          "indexed": false,
          "internalType": "uint32",
          "name": "fuses",
          "type": "uint32"
        },
        {
          "indexed": false,
          "internalType": "uint64",
          "name": "expiry",
          "type": "uint64"
        }
      ],
      "name": "NameWrapped",
      "type": "event"
    },
    {
      "anonymous": false,
      "inputs": [
        {
          "indexed": true,
          "internalType": "address",
          "name": "previousOwner",
          "type": "address"
        },
        {
          "indexed": true,
          "internalType": "address",
          "name": "newOwner",
          "type": "address"
        }
      ],
      "name": "OwnershipTransferred",
      "type": "event"
    },
    {
      "anonymous": false,
      "inputs": [
        {
          "indexed": true,
          "internalType": "address",
          "name": "operator",
          "type": "address"
        },
        {
          "indexed": true,
          "internalType": "address",
          "name": "from",
          "type": "address"
        },
        {
          "indexed": true,
          "internalType": "address",
          "name": "to",
          "type": "address"
        },
        {
          "indexed": false,
          "internalType": "uint256[]",
          "name": "ids",
          "type": "uint256[]"
        },
        {
          "indexed": false,
          "internalType": "uint256[]",
          "name": "values",
          "type": "uint256[]"
        }
      ],
      "name": "TransferBatch",
      "type": "event"
    },
    {
      "anonymous": false,
      "inputs": [
        {
          "indexed": true,
          "internalType": "address",
          "name": "operator",
          "type": "address"
        },
        {
          "indexed": true,
          "internalType": "address",
          "name": "from",
          "type": "address"
        },
        {
          "indexed": true,
          "internalType": "address",
          "name": "to",
          "type": "address"
        },
        {
          "indexed": false,
          "internalType": "uint256",
          "name": "id",
          "type": "uint256"
        },
        {
          "indexed": false,
          "internalType": "uint256",
          "name": "value",
          "type": "uint256"
        }
      ],
      "name": "TransferSingle",
      "type": "event"
    },
    {
      "anonymous": false,
      "inputs": [
        {
          "indexed": false,
          "internalType": "string",
          "name": "value",
          "type": "string"
        },
        {
          "indexed": true,
          "internalType": "uint256",
          "name": "id",
          "type": "uint256"
        }
      ],
      "name": "URI",
      "type": "event"
    },
    {
      "inputs": [
        {
          "internalType": "uint256",
          "name": "",
          "type": "uint256"
        }
      ],
      "name": "_tokens",
      "outputs": [
        {
          "internalType": "uint256",
          "name": "",
          "type": "uint256"
        }
      ],
      "stateMutability": "view",
      "type": "function"
    },
    {
      "inputs": [
        {
          "internalType": "bytes32",
          "name": "node",
          "type": "bytes32"
        },
        {
          "internalType": "uint32",
          "name": "fuseMask",
          "type": "uint32"
        }
      ],
      "name": "allFusesBurned",
      "outputs": [
        {
          "internalType": "bool",
          "name": "",
          "type": "bool"
        }
      ],
      "stateMutability": "view",
      "type": "function"
    },
    {
      "inputs": [
        {
          "internalType": "address",
          "name": "account",
          "type": "address"
        },
        {
          "internalType": "uint256",
          "name": "id",
          "type": "uint256"
        }
      ],
      "name": "balanceOf",
      "outputs": [
        {
          "internalType": "uint256",
          "name": "",
          "type": "uint256"
        }
      ],
      "stateMutability": "view",
      "type": "function"
    },
    {
      "inputs": [
        {
          "internalType": "address[]",
          "name": "accounts",
          "type": "address[]"
        },
        {
          "internalType": "uint256[]",
          "name": "ids",
          "type": "uint256[]"
        }
      ],
      "name": "balanceOfBatch",
      "outputs": [
        {
          "internalType": "uint256[]",
          "name": "",
          "type": "uint256[]"
        }
      ],
      "stateMutability": "view",
      "type": "function"
    },
    {
      "inputs": [
        {
          "internalType": "bytes32",
          "name": "node",
          "type": "bytes32"
        },
        {
          "internalType": "address",
          "name": "addr",
          "type": "address"
        }
      ],
      "name": "canModifyName",
      "outputs": [
        {
          "internalType": "bool",
          "name": "",
          "type": "bool"
        }
      ],
      "stateMutability": "view",
      "type": "function"
    },
    {
      "inputs": [
        {
          "internalType": "address",
          "name": "",
          "type": "address"
        }
      ],
      "name": "controllers",
      "outputs": [
        {
          "internalType": "bool",
          "name": "",
          "type": "bool"
        }
      ],
      "stateMutability": "view",
      "type": "function"
    },
    {
      "inputs": [],
      "name": "ens",
      "outputs": [
        {
          "internalType": "contract ENS",
          "name": "",
          "type": "address"
        }
      ],
      "stateMutability": "view",
      "type": "function"
    },
    {
      "inputs": [
        {
          "internalType": "uint256",
          "name": "id",
          "type": "uint256"
        }
      ],
      "name": "getData",
      "outputs": [
        {
          "internalType": "address",
          "name": "owner",
          "type": "address"
        },
        {
          "internalType": "uint32",
          "name": "fuses",
          "type": "uint32"
        },
        {
          "internalType": "uint64",
          "name": "expiry",
          "type": "uint64"
        }
      ],
      "stateMutability": "view",
      "type": "function"
    },
    {
      "inputs": [
        {
          "internalType": "address",
          "name": "account",
          "type": "address"
        },
        {
          "internalType": "address",
          "name": "operator",
          "type": "address"
        }
      ],
      "name": "isApprovedForAll",
      "outputs": [
        {
          "internalType": "bool",
          "name": "",
          "type": "bool"
        }
      ],
      "stateMutability": "view",
      "type": "function"
    },
    {
      "inputs": [],
      "name": "metadataService",
      "outputs": [
        {
          "internalType": "contract IMetadataService",
          "name": "",
          "type": "address"
        }
      ],
      "stateMutability": "view",
      "type": "function"
    },
    {
      "inputs": [],
      "name": "name",
      "outputs": [
        {
          "internalType": "string",
          "name": "",
          "type": "string"
        }
      ],
      "stateMutability": "view",
      "type": "function"
    },
    {
      "inputs": [
        {
          "internalType": "bytes32",
          "name": "",
          "type": "bytes32"
        }
      ],
      "name": "names",
      "outputs": [
        {
          "internalType": "bytes",
          "name": "",
          "type": "bytes"
        }
      ],
      "stateMutability": "view",
      "type": "function"
    },
    {
      "inputs": [
        {
          "internalType": "address",
          "name": "to",
          "type": "address"
        },
        {
          "internalType": "address",
          "name": "",
          "type": "address"
        },
        {
          "internalType": "uint256",
          "name": "tokenId",
          "type": "uint256"
        },
        {
          "internalType": "bytes",
          "name": "data",
          "type": "bytes"
        }
      ],
      "name": "onERC721Received",
      "outputs": [
        {
          "internalType": "bytes4",
          "name": "",
          "type": "bytes4"
        }
      ],
      "stateMutability": "nonpayable",
      "type": "function"
    },
    {
      "inputs": [],
      "name": "owner",
      "outputs": [
        {
          "internalType": "address",
          "name": "",
          "type": "address"
        }
      ],
      "stateMutability": "view",
      "type": "function"
    },
    {
      "inputs": [
        {
          "internalType": "uint256",
          "name": "id",
          "type": "uint256"
        }
      ],
      "name": "ownerOf",
      "outputs": [
        {
          "internalType": "address",
          "name": "owner",
          "type": "address"
        }
      ],
      "stateMutability": "view",
      "type": "function"
    },
    {
      "inputs": [
        {
          "internalType": "address",
          "name": "_token",
          "type": "address"
        },
        {
          "internalType": "address",
          "name": "_to",
          "type": "address"
        },
        {
          "internalType": "uint256",
          "name": "_amount",
          "type": "uint256"
        }
      ],
      "name": "recoverFunds",
      "outputs": [],
      "stateMutability": "nonpayable",
      "type": "function"
    },
    {
      "inputs": [
        {
          "internalType": "string",
          "name": "label",
          "type": "string"
        },
        {
          "internalType": "address",
          "name": "wrappedOwner",
          "type": "address"
        },
        {
          "internalType": "uint256",
          "name": "duration",
          "type": "uint256"
        },
        {
          "internalType": "address",
          "name": "resolver",
          "type": "address"
        },
        {
          "internalType": "uint16",
          "name": "ownerControlledFuses",
          "type": "uint16"
        }
      ],
      "name": "registerAndWrapETH2LD",
      "outputs": [
        {
          "internalType": "uint256",
          "name": "registrarExpiry",
          "type": "uint256"
        }
      ],
      "stateMutability": "nonpayable",
      "type": "function"
    },
    {
      "inputs": [],
      "name": "registrar",
      "outputs": [
        {
          "internalType": "contract IBaseRegistrar",
          "name": "",
          "type": "address"
        }
      ],
      "stateMutability": "view",
      "type": "function"
    },
    {
      "inputs": [
        {
          "internalType": "uint256",
          "name": "tokenId",
          "type": "uint256"
        },
        {
          "internalType": "uint256",
          "name": "duration",
          "type": "uint256"
        }
      ],
      "name": "renew",
      "outputs": [
        {
          "internalType": "uint256",
          "name": "expires",
          "type": "uint256"
        }
      ],
      "stateMutability": "nonpayable",
      "type": "function"
    },
    {
      "inputs": [],
      "name": "renounceOwnership",
      "outputs": [],
      "stateMutability": "nonpayable",
      "type": "function"
    },
    {
      "inputs": [
        {
          "internalType": "address",
          "name": "from",
          "type": "address"
        },
        {
          "internalType": "address",
          "name": "to",
          "type": "address"
        },
        {
          "internalType": "uint256[]",
          "name": "ids",
          "type": "uint256[]"
        },
        {
          "internalType": "uint256[]",
          "name": "amounts",
          "type": "uint256[]"
        },
        {
          "internalType": "bytes",
          "name": "data",
          "type": "bytes"
        }
      ],
      "name": "safeBatchTransferFrom",
      "outputs": [],
      "stateMutability": "nonpayable",
      "type": "function"
    },
    {
      "inputs": [
        {
          "internalType": "address",
          "name": "from",
          "type": "address"
        },
        {
          "internalType": "address",
          "name": "to",
          "type": "address"
        },
        {
          "internalType": "uint256",
          "name": "id",
          "type": "uint256"
        },
        {
          "internalType": "uint256",
          "name": "amount",
          "type": "uint256"
        },
        {
          "internalType": "bytes",
          "name": "data",
          "type": "bytes"
        }
      ],
      "name": "safeTransferFrom",
      "outputs": [],
      "stateMutability": "nonpayable",
      "type": "function"
    },
    {
      "inputs": [
        {
          "internalType": "address",
          "name": "operator",
          "type": "address"
        },
        {
          "internalType": "bool",
          "name": "approved",
          "type": "bool"
        }
      ],
      "name": "setApprovalForAll",
      "outputs": [],
      "stateMutability": "nonpayable",
      "type": "function"
    },
    {
      "inputs": [
        {
          "internalType": "bytes32",
          "name": "parentNode",
          "type": "bytes32"
        },
        {
          "internalType": "bytes32",
          "name": "labelhash",
          "type": "bytes32"
        },
        {
          "internalType": "uint32",
          "name": "fuses",
          "type": "uint32"
        },
        {
          "internalType": "uint64",
          "name": "expiry",
          "type": "uint64"
        }
      ],
      "name": "setChildFuses",
      "outputs": [],
      "stateMutability": "nonpayable",
      "type": "function"
    },
    {
      "inputs": [
        {
          "internalType": "address",
          "name": "controller",
          "type": "address"
        },
        {
          "internalType": "bool",
          "name": "active",
          "type": "bool"
        }
      ],
      "name": "setController",
      "outputs": [],
      "stateMutability": "nonpayable",
      "type": "function"
    },
    {
      "inputs": [
        {
          "internalType": "bytes32",
          "name": "node",
          "type": "bytes32"
        },
        {
          "internalType": "uint16",
          "name": "ownerControlledFuses",
          "type": "uint16"
        }
      ],
      "name": "setFuses",
      "outputs": [
        {
          "internalType": "uint32",
          "name": "",
          "type": "uint32"
        }
      ],
      "stateMutability": "nonpayable",
      "type": "function"
    },
    {
      "inputs": [
        {
          "internalType": "contract IMetadataService",
          "name": "_metadataService",
          "type": "address"
        }
      ],
      "name": "setMetadataService",
      "outputs": [],
      "stateMutability": "nonpayable",
      "type": "function"
    },
    {
      "inputs": [
        {
          "internalType": "bytes32",
          "name": "node",
          "type": "bytes32"
        },
        {
          "internalType": "address",
          "name": "owner",
          "type": "address"
        },
        {
          "internalType": "address",
          "name": "resolver",
          "type": "address"
        },
        {
          "internalType": "uint64",
          "name": "ttl",
          "type": "uint64"
        }
      ],
      "name": "setRecord",
      "outputs": [],
      "stateMutability": "nonpayable",
      "type": "function"
    },
    {
      "inputs": [
        {
          "internalType": "bytes32",
          "name": "node",
          "type": "bytes32"
        },
        {
          "internalType": "address",
          "name": "resolver",
          "type": "address"
        }
      ],
      "name": "setResolver",
      "outputs": [],
      "stateMutability": "nonpayable",
      "type": "function"
    },
    {
      "inputs": [
        {
          "internalType": "bytes32",
          "name": "parentNode",
          "type": "bytes32"
        },
        {
          "internalType": "string",
          "name": "label",
          "type": "string"
        },
        {
          "internalType": "address",
          "name": "owner",
          "type": "address"
        },
        {
          "internalType": "uint32",
          "name": "fuses",
          "type": "uint32"
        },
        {
          "internalType": "uint64",
          "name": "expiry",
          "type": "uint64"
        }
      ],
      "name": "setSubnodeOwner",
      "outputs": [
        {
          "internalType": "bytes32",
          "name": "node",
          "type": "bytes32"
        }
      ],
      "stateMutability": "nonpayable",
      "type": "function"
    },
    {
      "inputs": [
        {
          "internalType": "bytes32",
          "name": "parentNode",
          "type": "bytes32"
        },
        {
          "internalType": "string",
          "name": "label",
          "type": "string"
        },
        {
          "internalType": "address",
          "name": "owner",
          "type": "address"
        },
        {
          "internalType": "address",
          "name": "resolver",
          "type": "address"
        },
        {
          "internalType": "uint64",
          "name": "ttl",
          "type": "uint64"
        },
        {
          "internalType": "uint32",
          "name": "fuses",
          "type": "uint32"
        },
        {
          "internalType": "uint64",
          "name": "expiry",
          "type": "uint64"
        }
      ],
      "name": "setSubnodeRecord",
      "outputs": [
        {
          "internalType": "bytes32",
          "name": "node",
          "type": "bytes32"
        }
      ],
      "stateMutability": "nonpayable",
      "type": "function"
    },
    {
      "inputs": [
        {
          "internalType": "bytes32",
          "name": "node",
          "type": "bytes32"
        },
        {
          "internalType": "uint64",
          "name": "ttl",
          "type": "uint64"
        }
      ],
      "name": "setTTL",
      "outputs": [],
      "stateMutability": "nonpayable",
      "type": "function"
    },
    {
      "inputs": [
        {
          "internalType": "contract INameWrapperUpgrade",
          "name": "_upgradeAddress",
          "type": "address"
        }
      ],
      "name": "setUpgradeContract",
      "outputs": [],
      "stateMutability": "nonpayable",
      "type": "function"
    },
    {
      "inputs": [
        {
          "internalType": "bytes4",
          "name": "interfaceId",
          "type": "bytes4"
        }
      ],
      "name": "supportsInterface",
      "outputs": [
        {
          "internalType": "bool",
          "name": "",
          "type": "bool"
        }
      ],
      "stateMutability": "view",
      "type": "function"
    },
    {
      "inputs": [
        {
          "internalType": "address",
          "name": "newOwner",
          "type": "address"
        }
      ],
      "name": "transferOwnership",
      "outputs": [],
      "stateMutability": "nonpayable",
      "type": "function"
    },
    {
      "inputs": [
        {
          "internalType": "bytes32",
          "name": "parentNode",
          "type": "bytes32"
        },
        {
          "internalType": "bytes32",
          "name": "labelhash",
          "type": "bytes32"
        },
        {
          "internalType": "address",
          "name": "controller",
          "type": "address"
        }
      ],
      "name": "unwrap",
      "outputs": [],
      "stateMutability": "nonpayable",
      "type": "function"
    },
    {
      "inputs": [
        {
          "internalType": "bytes32",
          "name": "labelhash",
          "type": "bytes32"
        },
        {
          "internalType": "address",
          "name": "registrant",
          "type": "address"
        },
        {
          "internalType": "address",
          "name": "controller",
          "type": "address"
        }
      ],
      "name": "unwrapETH2LD",
      "outputs": [],
      "stateMutability": "nonpayable",
      "type": "function"
    },
    {
      "inputs": [
        {
          "internalType": "bytes32",
          "name": "parentNode",
          "type": "bytes32"
        },
        {
          "internalType": "string",
          "name": "label",
          "type": "string"
        },
        {
          "internalType": "address",
          "name": "wrappedOwner",
          "type": "address"
        },
        {
          "internalType": "address",
          "name": "resolver",
          "type": "address"
        }
      ],
      "name": "upgrade",
      "outputs": [],
      "stateMutability": "nonpayable",
      "type": "function"
    },
    {
      "inputs": [],
      "name": "upgradeContract",
      "outputs": [
        {
          "internalType": "contract INameWrapperUpgrade",
          "name": "",
          "type": "address"
        }
      ],
      "stateMutability": "view",
      "type": "function"
    },
    {
      "inputs": [
        {
          "internalType": "string",
          "name": "label",
          "type": "string"
        },
        {
          "internalType": "address",
          "name": "wrappedOwner",
          "type": "address"
        },
        {
          "internalType": "address",
          "name": "resolver",
          "type": "address"
        }
      ],
      "name": "upgradeETH2LD",
      "outputs": [],
      "stateMutability": "nonpayable",
      "type": "function"
    },
    {
      "inputs": [
        {
          "internalType": "uint256",
          "name": "tokenId",
          "type": "uint256"
        }
      ],
      "name": "uri",
      "outputs": [
        {
          "internalType": "string",
          "name": "",
          "type": "string"
        }
      ],
      "stateMutability": "view",
      "type": "function"
    },
    {
      "inputs": [
        {
          "internalType": "bytes",
          "name": "name",
          "type": "bytes"
        },
        {
          "internalType": "address",
          "name": "wrappedOwner",
          "type": "address"
        },
        {
          "internalType": "address",
          "name": "resolver",
          "type": "address"
        }
      ],
      "name": "wrap",
      "outputs": [],
      "stateMutability": "nonpayable",
      "type": "function"
    },
    {
      "inputs": [
        {
          "internalType": "string",
          "name": "label",
          "type": "string"
        },
        {
          "internalType": "address",
          "name": "wrappedOwner",
          "type": "address"
        },
        {
          "internalType": "uint16",
          "name": "ownerControlledFuses",
          "type": "uint16"
        },
        {
          "internalType": "address",
          "name": "resolver",
          "type": "address"
        }
      ],
      "name": "wrapETH2LD",
      "outputs": [],
      "stateMutability": "nonpayable",
      "type": "function"
    }
  ],
  "transactionHash": "0x9e85592abadfdd02153a12c7e8dd2e25b8d2ff2ce41025824ab455c67f407beb",
  "args": [
    "0x8393dfac96C5CA92F96A28b61D12D4731F5545Ff",
    "0xF01C89E70688E7A6e32e865153C581c5Ef5a1c82",
    "0xF0ef52f0D57284c91727F14DbeD8B45575b5a409"
  ],
  "numDeployments": 1,
  "solcInputHash": "20d0cf755bdff128bd31fe4809ab35fa",
  "bytecode": "0x60c06040523480156200001157600080fd5b50604051620060b8380380620060b88339810160408190526200003491620001f0565b6200003f3362000187565b6001600160a01b0383811660805282811660a052600480546001600160a01b031916918316919091179055600163fffeffff60a01b03197f035a4bbd01ea82cefefb39211c9e019944fdf83f18a0a0ae565262aa50d253d28190557fa6eef7e35abe7026729641147f7915573c7e97b47efa546f5f6e3230263bcb4955604080518082019091526001815260006020808301829052908052600590527f05b8ccbb9d4d8fb16ea74ce3c29a41f1b461fbdaff4714a0d9a8eb05499746bc90620001099082620002e9565b506040805180820190915260058082526301b0b93160e11b6020808401919091527fd924c6d6935f3bf84be3da0b40fabe48800690c760c2db576028a389f1b54f89600052527f0a8b835f990c1622d7f873f32f4896b3c283907f246b77e27b94cb973229c603906200017d9082620002e9565b50505050620003b5565b600080546001600160a01b038381166001600160a01b0319831681178455604051919092169283917f8be0079c531659141344cd1fd0a4f28419497f9722a3daafe3b4186f6b6457e09190a35050565b6001600160a01b0381168114620001ed57600080fd5b50565b6000806000606084860312156200020657600080fd5b83516200021381620001d7565b60208501519093506200022681620001d7565b60408501519092506200023981620001d7565b809150509250925092565b634e487b7160e01b600052604160045260246000fd5b600181811c908216806200026f57607f821691505b6020821081036200029057634e487b7160e01b600052602260045260246000fd5b50919050565b601f821115620002e457600081815260208120601f850160051c81016020861015620002bf5750805b601f850160051c820191505b81811015620002e057828155600101620002cb565b5050505b505050565b81516001600160401b0381111562000305576200030562000244565b6200031d816200031684546200025a565b8462000296565b602080601f8311600181146200035557600084156200033c5750858301515b600019600386901b1c1916600185901b178555620002e0565b600085815260208120601f198616915b82811015620003865788860151825594840194600190910190840162000365565b5085821015620003a55787850151600019600388901b60f8161c191681555b5050505050600190811b01905550565b60805160a051615c12620004a6600039600081816104960152818161088201528181610b7701528181610c6a01528181611ba101528181611c4f01528181611d1601528181611e3801528181611ec70152818161213f0152818161226c015281816123b60152818161255501526137460152600081816104e301528181610afd01528181610df901528181610f6e0152818161112e015281816111f9015281816122f10152818161243b0152818161268d0152818161288301528181612a2801528181612f59015281816130200152818161310201528181613194015281816138290152613f760152615c126000f3fe608060405234801561001057600080fd5b50600436106102e85760003560e01c80636352211e11610191578063cf408823116100e3578063e985e9c511610097578063ee7eba7811610071578063ee7eba7814610728578063f242432a1461073b578063f2fde38b1461074e57600080fd5b8063e985e9c5146106b9578063eb8ae530146106f5578063ed70554d1461070857600080fd5b8063da8c229e116100c8578063da8c229e14610670578063e0dba60f14610693578063e72bf00f146106a657600080fd5b8063cf4088231461064a578063d8c9921a1461065d57600080fd5b8063a22cb46511610145578063b6bcad261161011f578063b6bcad2614610611578063c475abff14610624578063c658e0861461063757600080fd5b8063a22cb465146105d8578063a4014982146105eb578063adf4960a146105fe57600080fd5b80638b4dfa75116101765780638b4dfa75146105a15780638cf8b41e146105b45780638da5cb5b146105c757600080fd5b80636352211e14610586578063715018a61461059957600080fd5b806320c38e2b1161024a5780633f15457f116101fe5780634e1273f4116101d85780634e1273f41461054057806353095467146105605780635d3590d51461057357600080fd5b80633f15457f146104de578063402906fc1461050557806341415eab1461052d57600080fd5b80632b20e3971161022f5780632b20e397146104915780632eb2c2d6146104b857806333c69ea9146104cb57600080fd5b806320c38e2b1461046b57806324c1af441461047e57600080fd5b806314ab9038116102a15780631534e177116102865780631534e1771461041a5780631896f70a1461042d5780631f4e15041461044057600080fd5b806314ab9038146103d9578063150b7a02146103ee57600080fd5b806301ffc9a7116102d257806301ffc9a71461035a57806306fdde031461037d5780630e89341c146103c657600080fd5b8062fdd58e146102ed5780630178fe3f14610313575b600080fd5b6103006102fb366004614a16565b610761565b6040519081526020015b60405180910390f35b610326610321366004614a42565b610820565b604080516001600160a01b03909416845263ffffffff909216602084015267ffffffffffffffff169082015260600161030a565b61036d610368366004614a71565b610952565b604051901515815260200161030a565b6103b96040518060400160405280600b81526020017f4e616d655772617070657200000000000000000000000000000000000000000081525081565b60405161030a9190614ade565b6103b96103d4366004614a42565b6109c4565b6103ec6103e7366004614b0e565b610a51565b005b6104016103fc366004614b83565b610b6a565b6040516001600160e01b0319909116815260200161030a565b6103ec610428366004614bf6565b610d0b565b6103ec61043b366004614c13565b610d4d565b600654610453906001600160a01b031681565b6040516001600160a01b03909116815260200161030a565b6103b9610479366004614a42565b610e28565b61030061048c366004614d1e565b610ec2565b6104537f000000000000000000000000000000000000000000000000000000000000000081565b6103ec6104c6366004614e46565b611274565b6103ec6104d9366004614ef4565b6115e2565b6104537f000000000000000000000000000000000000000000000000000000000000000081565b610518610513366004614f4c565b611710565b60405163ffffffff909116815260200161030a565b61036d61053b366004614c13565b6117b7565b61055361054e366004614f6f565b611849565b60405161030a919061506d565b600454610453906001600160a01b031681565b6103ec610581366004615080565b611987565b610453610594366004614a42565b611a21565b6103ec611a2c565b6103ec6105af3660046150c1565b611a40565b6103ec6105c2366004615103565b611c03565b6000546001600160a01b0316610453565b6103ec6105e636600461518c565b611f7a565b6103006105f93660046151ba565b612064565b61036d61060c36600461523b565b612205565b6103ec61061f366004614bf6565b61222a565b61030061063236600461525e565b61249a565b610300610645366004615280565b6125d1565b6103ec6106583660046152f3565b612966565b6103ec61066b36600461532b565b612b38565b61036d61067e366004614bf6565b60036020526000908152604090205460ff1681565b6103ec6106a136600461518c565b612c7a565b6103ec6106b4366004615359565b612ce2565b61036d6106c73660046153c1565b6001600160a01b03918216600090815260026020908152604080832093909416825291909152205460ff1690565b6103ec610703366004615359565b612df3565b610300610716366004614a42565b60016020526000908152604090205481565b6103ec6107363660046153ef565b61323b565b6103ec610749366004615445565b613331565b6103ec61075c366004614bf6565b613466565b60006001600160a01b0383166107e45760405162461bcd60e51b815260206004820152602b60248201527f455243313135353a2062616c616e636520717565727920666f7220746865207a60448201527f65726f206164647265737300000000000000000000000000000000000000000060648201526084015b60405180910390fd5b60006107ef83611a21565b9050836001600160a01b0316816001600160a01b03160361081457600191505061081a565b60009150505b92915050565b6000818152600160205260408120549060a082901c9060c083901c9061084685846134f3565b90508015610902576040517fd6e4fa86000000000000000000000000000000000000000000000000000000008152600481018290526276a700907f00000000000000000000000000000000000000000000000000000000000000006001600160a01b03169063d6e4fa8690602401602060405180830381865afa1580156108d1573d6000803e3d6000fd5b505050506040513d601f19601f820116820180604052508101906108f591906154ae565b6108ff91906154dd565b91505b428267ffffffffffffffff16101561094a577fffffffffffffffffffffffffffffffffffffffffffffffffffffffffffff00006201000084160161094557600093505b600092505b509193909250565b60006001600160e01b031982167fefe9889e0000000000000000000000000000000000000000000000000000000014806109b557506001600160e01b031982167f150b7a0200000000000000000000000000000000000000000000000000000000145b8061081a575061081a826135bb565b600480546040517f0e89341c0000000000000000000000000000000000000000000000000000000081529182018390526060916001600160a01b0390911690630e89341c90602401600060405180830381865afa158015610a29573d6000803e3d6000fd5b505050506040513d6000823e601f3d908101601f1916820160405261081a9190810190615505565b81610a5c81336117b7565b610a825760405163168ab55d60e31b8152600481018290523360248201526044016107db565b8260106000610a9083610820565b5091505063ffffffff8282161615610abe5760405163a2a7201360e01b8152600481018490526024016107db565b6040517f14ab90380000000000000000000000000000000000000000000000000000000081526004810187905267ffffffffffffffff861660248201527f00000000000000000000000000000000000000000000000000000000000000006001600160a01b0316906314ab9038906044015b600060405180830381600087803b158015610b4a57600080fd5b505af1158015610b5e573d6000803e3d6000fd5b50505050505050505050565b6000336001600160a01b037f00000000000000000000000000000000000000000000000000000000000000001614610bce576040517f1931a53800000000000000000000000000000000000000000000000000000000815260040160405180910390fd5b6000808080610bdf8688018861557d565b83516020850120939750919550935091508890808214610c35576040517fc65c3ccc00000000000000000000000000000000000000000000000000000000815260048101829052602481018390526044016107db565b6040517f28ed4f6c000000000000000000000000000000000000000000000000000000008152600481018390523060248201527f00000000000000000000000000000000000000000000000000000000000000006001600160a01b0316906328ed4f6c90604401600060405180830381600087803b158015610cb657600080fd5b505af1158015610cca573d6000803e3d6000fd5b50505050610cda86868686613656565b507f150b7a02000000000000000000000000000000000000000000000000000000009b9a5050505050505050505050565b610d13613858565b600480547fffffffffffffffffffffffff0000000000000000000000000000000000000000166001600160a01b0392909216919091179055565b81610d5881336117b7565b610d7e5760405163168ab55d60e31b8152600481018290523360248201526044016107db565b8260086000610d8c83610820565b5091505063ffffffff8282161615610dba5760405163a2a7201360e01b8152600481018490526024016107db565b6040517f1896f70a000000000000000000000000000000000000000000000000000000008152600481018790526001600160a01b0386811660248301527f00000000000000000000000000000000000000000000000000000000000000001690631896f70a90604401610b30565b60056020526000908152604090208054610e41906155e5565b80601f0160208091040260200160405190810160405280929190818152602001828054610e6d906155e5565b8015610eba5780601f10610e8f57610100808354040283529160200191610eba565b820191906000526020600020905b815481529060010190602001808311610e9d57829003601f168201915b505050505081565b600087610ecf81336117b7565b610ef55760405163168ab55d60e31b8152600481018290523360248201526044016107db565b8888805190602001206000610f318383604080516020808201949094528082019290925280518083038201815260609092019052805191012090565b6040517f02571be3000000000000000000000000000000000000000000000000000000008152600481018290529091506000906001600160a01b037f000000000000000000000000000000000000000000000000000000000000000016906302571be390602401602060405180830381865afa158015610fb5573d6000803e3d6000fd5b505050506040513d601f19601f82011682018060405250810190610fd9919061561f565b90506001600160a01b038116611023576000610ff485610820565b50915050602081161561101d5760405163a2a7201360e01b8152600481018490526024016107db565b5061105b565b600061102e83610820565b50915050620100008116156110595760405163a2a7201360e01b8152600481018490526024016107db565b505b8b5160208d01206110938e82604080516020808201949094528082019290925280518083038201815260609092019052805191012090565b965061109f878a6138b2565b6110aa8e888f6138e5565b506110b78e888b8b6139a9565b975060006110c488611a21565b6001600160a01b03160361119d576040517f5ef2c7f0000000000000000000000000000000000000000000000000000000008152600481018f9052602481018290523060448201526001600160a01b038c8116606483015267ffffffffffffffff8c1660848301527f00000000000000000000000000000000000000000000000000000000000000001690635ef2c7f09060a401600060405180830381600087803b15801561117257600080fd5b505af1158015611186573d6000803e3d6000fd5b505050506111988e888f8f8d8d6139ef565b611263565b6040517f5ef2c7f0000000000000000000000000000000000000000000000000000000008152600481018f9052602481018290523060448201526001600160a01b038c8116606483015267ffffffffffffffff8c1660848301527f00000000000000000000000000000000000000000000000000000000000000001690635ef2c7f09060a401600060405180830381600087803b15801561123d57600080fd5b505af1158015611251573d6000803e3d6000fd5b505050506112638e888f8f8d8d613a1d565b505050505050979650505050505050565b81518351146112eb5760405162461bcd60e51b815260206004820152602860248201527f455243313135353a2069647320616e6420616d6f756e7473206c656e6774682060448201527f6d69736d6174636800000000000000000000000000000000000000000000000060648201526084016107db565b6001600160a01b0384166113675760405162461bcd60e51b815260206004820152602560248201527f455243313135353a207472616e7366657220746f20746865207a65726f20616460448201527f647265737300000000000000000000000000000000000000000000000000000060648201526084016107db565b6001600160a01b0385163314806113a157506001600160a01b038516600090815260026020908152604080832033845290915290205460ff165b6114135760405162461bcd60e51b815260206004820152603260248201527f455243313135353a207472616e736665722063616c6c6572206973206e6f742060448201527f6f776e6572206e6f7220617070726f766564000000000000000000000000000060648201526084016107db565b60005b83518110156115755760008482815181106114335761143361563c565b6020026020010151905060008483815181106114515761145161563c565b60200260200101519050600080600061146985610820565b92509250925061147a858383613ad8565b5083600114801561149c57508a6001600160a01b0316836001600160a01b0316145b61150e5760405162461bcd60e51b815260206004820152602a60248201527f455243313135353a20696e73756666696369656e742062616c616e636520666f60448201527f72207472616e736665720000000000000000000000000000000000000000000060648201526084016107db565b60008581526001602052604090206001600160a01b038b1663ffffffff60a01b60a085901b16177fffffffffffffffff00000000000000000000000000000000000000000000000060c084901b1617905550505050508061156e90615652565b9050611416565b50836001600160a01b0316856001600160a01b0316336001600160a01b03167f4a39dc06d4c0dbc64b70af90fd698a233a518aa5d07e595d983b8c0526c8f7fb86866040516115c592919061566c565b60405180910390a46115db338686868686613baf565b5050505050565b6040805160208082018790528183018690528251808303840181526060909201909252805191012061161481846138b2565b6000808061162184610820565b919450925090506000806116348a610820565b90935091508a90506116755761164a86336117b7565b6116705760405163168ab55d60e31b8152600481018790523360248201526044016107db565b6116a5565b61167f8a336117b7565b6116a55760405163168ab55d60e31b8152600481018790523360248201526044016107db565b6116b0868984613da3565b6116bb878483613dde565b9650620100008416158015906116df57508363ffffffff1688851763ffffffff1614155b156117005760405163a2a7201360e01b8152600481018790526024016107db565b96831796610b5e86868a8a613e28565b60008261171d81336117b7565b6117435760405163168ab55d60e31b8152600481018290523360248201526044016107db565b836002600061175183610820565b5091505063ffffffff828216161561177f5760405163a2a7201360e01b8152600481018490526024016107db565b6000808061178c8a610820565b9250925092506117a48a84848c61ffff161784613e28565b505061ffff909616979650505050505050565b60008080806117c586610820565b925092509250846001600160a01b0316836001600160a01b0316148061181057506001600160a01b0380841660009081526002602090815260408083209389168352929052205460ff165b801561183f5750620200008216158061183f5750426118326276a7008361569a565b67ffffffffffffffff1610155b9695505050505050565b606081518351146118c25760405162461bcd60e51b815260206004820152602960248201527f455243313135353a206163636f756e747320616e6420696473206c656e67746860448201527f206d69736d61746368000000000000000000000000000000000000000000000060648201526084016107db565b6000835167ffffffffffffffff8111156118de576118de614c43565b604051908082528060200260200182016040528015611907578160200160208202803683370190505b50905060005b845181101561197f5761195285828151811061192b5761192b61563c565b60200260200101518583815181106119455761194561563c565b6020026020010151610761565b8282815181106119645761196461563c565b602090810291909101015261197881615652565b905061190d565b509392505050565b61198f613858565b6040517fa9059cbb0000000000000000000000000000000000000000000000000000000081526001600160a01b0383811660048301526024820183905284169063a9059cbb906044016020604051808303816000875af11580156119f7573d6000803e3d6000fd5b505050506040513d601f19601f82011682018060405250810190611a1b91906156bb565b50505050565b600061081a82613e84565b611a34613858565b611a3e6000613e9a565b565b604080517fd924c6d6935f3bf84be3da0b40fabe48800690c760c2db576028a389f1b54f8960208083019190915281830186905282518083038401815260609092019092528051910120611a9481336117b7565b611aba5760405163168ab55d60e31b8152600481018290523360248201526044016107db565b306001600160a01b03841603611b07576040517f5949361a0000000000000000000000000000000000000000000000000000000081526001600160a01b03841660048201526024016107db565b604080517fd924c6d6935f3bf84be3da0b40fabe48800690c760c2db576028a389f1b54f8960208083019190915281830187905282518083038401815260609092019092528051910120611b5c905b83613f02565b6040517f42842e0e0000000000000000000000000000000000000000000000000000000081523060048201526001600160a01b038481166024830152604482018690527f000000000000000000000000000000000000000000000000000000000000000016906342842e0e90606401600060405180830381600087803b158015611be557600080fd5b505af1158015611bf9573d6000803e3d6000fd5b5050505050505050565b60008585604051611c159291906156d8565b6040519081900381207f6352211e0000000000000000000000000000000000000000000000000000000082526004820181905291506000907f00000000000000000000000000000000000000000000000000000000000000006001600160a01b031690636352211e90602401602060405180830381865afa158015611c9e573d6000803e3d6000fd5b505050506040513d601f19601f82011682018060405250810190611cc2919061561f565b90506001600160a01b0381163314801590611d8357506040517fe985e9c50000000000000000000000000000000000000000000000000000000081526001600160a01b0382811660048301523360248301527f0000000000000000000000000000000000000000000000000000000000000000169063e985e9c590604401602060405180830381865afa158015611d5d573d6000803e3d6000fd5b505050506040513d601f19601f82011682018060405250810190611d8191906156bb565b155b15611df357604080517fd924c6d6935f3bf84be3da0b40fabe48800690c760c2db576028a389f1b54f896020808301919091528183018590528251808303840181526060830193849052805191012063168ab55d60e31b909252606481019190915233608482015260a4016107db565b6040517f23b872dd0000000000000000000000000000000000000000000000000000000081526001600160a01b038281166004830152306024830152604482018490527f000000000000000000000000000000000000000000000000000000000000000016906323b872dd90606401600060405180830381600087803b158015611e7c57600080fd5b505af1158015611e90573d6000803e3d6000fd5b50506040517f28ed4f6c000000000000000000000000000000000000000000000000000000008152600481018590523060248201527f00000000000000000000000000000000000000000000000000000000000000006001600160a01b031692506328ed4f6c9150604401600060405180830381600087803b158015611f1557600080fd5b505af1158015611f29573d6000803e3d6000fd5b50505050611f7187878080601f016020809104026020016040519081016040528093929190818152602001838380828437600092019190915250899250889150879050613656565b50505050505050565b6001600160a01b0382163303611ff85760405162461bcd60e51b815260206004820152602960248201527f455243313135353a2073657474696e6720617070726f76616c2073746174757360448201527f20666f722073656c66000000000000000000000000000000000000000000000060648201526084016107db565b3360008181526002602090815260408083206001600160a01b03871680855290835292819020805460ff191686151590811790915590519081529192917f17307eab39ab6107e8899845ad3d59bd9653f200f220920489ca2b5937696c31910160405180910390a35050565b3360009081526003602052604081205460ff166120e95760405162461bcd60e51b815260206004820152602860248201527f436f6e74726f6c6c61626c653a2043616c6c6572206973206e6f74206120636f60448201527f6e74726f6c6c657200000000000000000000000000000000000000000000000060648201526084016107db565b600087876040516120fb9291906156d8565b6040519081900381207ffca247ac000000000000000000000000000000000000000000000000000000008252600482018190523060248301526044820187905291507f00000000000000000000000000000000000000000000000000000000000000006001600160a01b03169063fca247ac906064016020604051808303816000875af1158015612190573d6000803e3d6000fd5b505050506040513d601f19601f820116820180604052508101906121b491906154ae565b91506121fa88888080601f0160208091040260200160405190810160405280939291908181526020018383808284376000920191909152508a9250879150889050613656565b509695505050505050565b60008061221184610820565b50841663ffffffff908116908516149250505092915050565b612232613858565b6006546001600160a01b0316156123525760065460405163a22cb46560e01b81526001600160a01b039182166004820152600060248201527f00000000000000000000000000000000000000000000000000000000000000009091169063a22cb46590604401600060405180830381600087803b1580156122b257600080fd5b505af11580156122c6573d6000803e3d6000fd5b505060065460405163a22cb46560e01b81526001600160a01b039182166004820152600060248201527f0000000000000000000000000000000000000000000000000000000000000000909116925063a22cb4659150604401600060405180830381600087803b15801561233957600080fd5b505af115801561234d573d6000803e3d6000fd5b505050505b600680547fffffffffffffffffffffffff0000000000000000000000000000000000000000166001600160a01b038316908117909155156124975760065460405163a22cb46560e01b81526001600160a01b039182166004820152600160248201527f00000000000000000000000000000000000000000000000000000000000000009091169063a22cb46590604401600060405180830381600087803b1580156123fc57600080fd5b505af1158015612410573d6000803e3d6000fd5b505060065460405163a22cb46560e01b81526001600160a01b039182166004820152600160248201527f0000000000000000000000000000000000000000000000000000000000000000909116925063a22cb4659150604401600060405180830381600087803b15801561248357600080fd5b505af11580156115db573d6000803e3d6000fd5b50565b3360009081526003602052604081205460ff1661251f5760405162461bcd60e51b815260206004820152602860248201527f436f6e74726f6c6c61626c653a2043616c6c6572206973206e6f74206120636f60448201527f6e74726f6c6c657200000000000000000000000000000000000000000000000060648201526084016107db565b6040517fc475abff00000000000000000000000000000000000000000000000000000000815260048101849052602481018390527f00000000000000000000000000000000000000000000000000000000000000006001600160a01b03169063c475abff906044016020604051808303816000875af11580156125a6573d6000803e3d6000fd5b505050506040513d601f19601f820116820180604052508101906125ca91906154ae565b9392505050565b6000866125de81336117b7565b6126045760405163168ab55d60e31b8152600481018290523360248201526044016107db565b8787876040516126159291906156d8565b604051809103902060006126508383604080516020808201949094528082019290925280518083038201815260609092019052805191012090565b6040517f02571be3000000000000000000000000000000000000000000000000000000008152600481018290529091506000906001600160a01b037f000000000000000000000000000000000000000000000000000000000000000016906302571be390602401602060405180830381865afa1580156126d4573d6000803e3d6000fd5b505050506040513d601f19601f820116820180604052508101906126f8919061561f565b90506001600160a01b03811661274257600061271385610820565b50915050602081161561273c5760405163a2a7201360e01b8152600481018490526024016107db565b5061277a565b600061274d83610820565b50915050620100008116156127785760405163a2a7201360e01b8152600481018490526024016107db565b505b60008b8b60405161278c9291906156d8565b604051809103902090506127c78d82604080516020808201949094528082019290925280518083038201815260609092019052805191012090565b96506127d3878a6138b2565b60006128168e898f8f8080601f0160208091040260200160405190810160405280939291908181526020018383808284376000920191909152506138e592505050565b90506128248e898c8c6139a9565b9850600061283189611a21565b6001600160a01b031603612903576040517f06ab5923000000000000000000000000000000000000000000000000000000008152600481018f9052602481018390523060448201526001600160a01b037f000000000000000000000000000000000000000000000000000000000000000016906306ab5923906064016020604051808303816000875af11580156128cc573d6000803e3d6000fd5b505050506040513d601f19601f820116820180604052508101906128f091906154ae565b506128fe88828d8d8d61400d565b612955565b6129558e898f8f8080601f016020809104026020016040519081016040528093929190818152602001838380828437600081840152601f19601f820116905080830192505050505050508e8e8e613a1d565b505050505050509695505050505050565b8361297181336117b7565b6129975760405163168ab55d60e31b8152600481018290523360248201526044016107db565b84601c60006129a583610820565b5091505063ffffffff82821616156129d35760405163a2a7201360e01b8152600481018490526024016107db565b6040517fcf408823000000000000000000000000000000000000000000000000000000008152600481018990523060248201526001600160a01b03878116604483015267ffffffffffffffff871660648301527f0000000000000000000000000000000000000000000000000000000000000000169063cf40882390608401600060405180830381600087803b158015612a6c57600080fd5b505af1158015612a80573d6000803e3d6000fd5b5050506001600160a01b0388169050612b00576000612a9e89610820565b509150506201ffff1962020000821601612aef576040517f5949361a0000000000000000000000000000000000000000000000000000000081526001600160a01b03891660048201526024016107db565b612afa896000613f02565b50611bf9565b6000612b0b89611a21565b9050612b2d81898b60001c60016040518060200160405280600081525061405e565b505050505050505050565b60408051602080820186905281830185905282518083038401815260609092019092528051910120612b6a81336117b7565b612b905760405163168ab55d60e31b8152600481018290523360248201526044016107db565b7f26db39296ca0c407b41c25f4bf0541b77ff96f389f3d24a89fd75c760e4ab0778401612be9576040517f615a470300000000000000000000000000000000000000000000000000000000815260040160405180910390fd5b6001600160a01b0382161580612c0757506001600160a01b03821630145b15612c49576040517f5949361a0000000000000000000000000000000000000000000000000000000081526001600160a01b03831660048201526024016107db565b60408051602080820187905281830186905282518083038401815260609092019092528051910120611a1b90611b56565b612c82613858565b6001600160a01b038216600081815260036020908152604091829020805460ff191685151590811790915591519182527f4c97694570a07277810af7e5669ffd5f6a2d6b74b6e9a274b8b870fd5114cf8791015b60405180910390a25050565b60008484604051612cf49291906156d8565b60405190819003902090506000612d527fd924c6d6935f3bf84be3da0b40fabe48800690c760c2db576028a389f1b54f8983604080516020808201949094528082019290925280518083038201815260609092019052805191012090565b9050600080612d60836141dc565b6006546040517ff9547a9e0000000000000000000000000000000000000000000000000000000081529294509092506001600160a01b03169063f9547a9e90612db7908b908b908b90889088908d90600401615713565b600060405180830381600087803b158015612dd157600080fd5b505af1158015612de5573d6000803e3d6000fd5b505050505050505050505050565b600080612e3a600087878080601f01602080910402602001604051908101604052809392919081815260200183838082843760009201919091525092939250506142719050565b915091506000612e838288888080601f01602080910402602001604051908101604052809392919081815260200183838082843760009201919091525092939250506143289050565b604080516020808201849052818301879052825180830384018152606090920190925280519101209091506000906000818152600560205260409020909150612ecd888a836157b4565b507f26db39296ca0c407b41c25f4bf0541b77ff96f389f3d24a89fd75c760e4ab0778201612f27576040517f615a470300000000000000000000000000000000000000000000000000000000815260040160405180910390fd5b6040517f02571be3000000000000000000000000000000000000000000000000000000008152600481018290526000907f00000000000000000000000000000000000000000000000000000000000000006001600160a01b0316906302571be390602401602060405180830381865afa158015612fa8573d6000803e3d6000fd5b505050506040513d601f19601f82011682018060405250810190612fcc919061561f565b90506001600160a01b038116331480159061308d57506040517fe985e9c50000000000000000000000000000000000000000000000000000000081526001600160a01b0382811660048301523360248301527f0000000000000000000000000000000000000000000000000000000000000000169063e985e9c590604401602060405180830381865afa158015613067573d6000803e3d6000fd5b505050506040513d601f19601f8201168201806040525081019061308b91906156bb565b155b156130b45760405163168ab55d60e31b8152600481018390523360248201526044016107db565b6001600160a01b0386161561315f576040517f1896f70a000000000000000000000000000000000000000000000000000000008152600481018390526001600160a01b0387811660248301527f00000000000000000000000000000000000000000000000000000000000000001690631896f70a90604401600060405180830381600087803b15801561314657600080fd5b505af115801561315a573d6000803e3d6000fd5b505050505b6040517f5b0fc9c3000000000000000000000000000000000000000000000000000000008152600481018390523060248201527f00000000000000000000000000000000000000000000000000000000000000006001600160a01b031690635b0fc9c390604401600060405180830381600087803b1580156131e057600080fd5b505af11580156131f4573d6000803e3d6000fd5b50505050612b2d828a8a8080601f01602080910402602001604051908101604052809392919081815260200183838082843760009201829052508d9350915081905061400d565b6000848460405161324d9291906156d8565b60405180910390209050600061328a8783604080516020808201949094528082019290925280518083038201815260609092019052805191012090565b9050600080613298836141dc565b6006546040517f24c1af440000000000000000000000000000000000000000000000000000000081529294509092506001600160a01b0316906324c1af44906132f4908c908c908c908c908c906000908b908b90600401615874565b600060405180830381600087803b15801561330e57600080fd5b505af1158015613322573d6000803e3d6000fd5b50505050505050505050505050565b6001600160a01b0384166133ad5760405162461bcd60e51b815260206004820152602560248201527f455243313135353a207472616e7366657220746f20746865207a65726f20616460448201527f647265737300000000000000000000000000000000000000000000000000000060648201526084016107db565b6001600160a01b0385163314806133e757506001600160a01b038516600090815260026020908152604080832033845290915290205460ff165b6134595760405162461bcd60e51b815260206004820152602960248201527f455243313135353a2063616c6c6572206973206e6f74206f776e6572206e6f7260448201527f20617070726f766564000000000000000000000000000000000000000000000060648201526084016107db565b6115db858585858561405e565b61346e613858565b6001600160a01b0381166134ea5760405162461bcd60e51b815260206004820152602660248201527f4f776e61626c653a206e6577206f776e657220697320746865207a65726f206160448201527f646472657373000000000000000000000000000000000000000000000000000060648201526084016107db565b61249781613e9a565b60006201ffff196202000083160161081a576000838152600560205260408120805461351e906155e5565b80601f016020809104026020016040519081016040528092919081815260200182805461354a906155e5565b80156135975780601f1061356c57610100808354040283529160200191613597565b820191906000526020600020905b81548152906001019060200180831161357a57829003601f168201915b505050505090506135b260008261427190919063ffffffff16565b50949350505050565b60006001600160e01b031982167fd9b67a2600000000000000000000000000000000000000000000000000000000148061361e57506001600160e01b031982167f0e89341c00000000000000000000000000000000000000000000000000000000145b8061081a57507f01ffc9a7000000000000000000000000000000000000000000000000000000006001600160e01b031983161461081a565b8351602085012060006136b07fd924c6d6935f3bf84be3da0b40fabe48800690c760c2db576028a389f1b54f8983604080516020808201949094528082019290925280518083038201815260609092019052805191012090565b905060006136f3876040518060400160405280600581526020017f03617262000000000000000000000000000000000000000000000000000000008152506143e7565b600083815260056020526040902090915061370e82826158d7565b506040517fd6e4fa86000000000000000000000000000000000000000000000000000000008152600481018490526000906276a700907f00000000000000000000000000000000000000000000000000000000000000006001600160a01b03169063d6e4fa8690602401602060405180830381865afa158015613795573d6000803e3d6000fd5b505050506040513d601f19601f820116820180604052508101906137b991906154ae565b6137c391906154dd565b90506137db8383896203000061ffff8b16178561400d565b6001600160a01b03851615611bf9576040517f1896f70a000000000000000000000000000000000000000000000000000000008152600481018490526001600160a01b0386811660248301527f00000000000000000000000000000000000000000000000000000000000000001690631896f70a90604401612db7565b6000546001600160a01b03163314611a3e5760405162461bcd60e51b815260206004820181905260248201527f4f776e61626c653a2063616c6c6572206973206e6f7420746865206f776e657260448201526064016107db565b63fffdffff81811763ffffffff16146138e15760405163a2a7201360e01b8152600481018390526024016107db565b5050565b6060600061398e8360056000888152602001908152602001600020805461390b906155e5565b80601f0160208091040260200160405190810160405280929190818152602001828054613937906155e5565b80156139845780601f1061395957610100808354040283529160200191613984565b820191906000526020600020905b81548152906001019060200180831161396757829003601f168201915b50505050506143e7565b60008581526005602052604090209091506135b282826158d7565b6000806139b585610820565b925050506000806139c88860001c610820565b92509250506139d8878784613da3565b6139e3858483613dde565b98975050505050505050565b60008681526005602052604081208054613a0e91879161390b906155e5565b9050611f71868286868661400d565b6000613a2886611a21565b90506000613a4e86600560008b8152602001908152602001600020805461390b906155e5565b6000888152600560205260409020805491925090613a6b906155e5565b9050600003613a8e576000878152600560205260409020613a8c82826158d7565b505b613a9a87838686613e28565b6001600160a01b038516613ab857613ab3876000613f02565b611bf9565b611bf982868960001c60016040518060200160405280600081525061405e565b60006201ffff1962020000841601613afa57613af76276a7008361569a565b91505b428267ffffffffffffffff161015613b8a5762010000831615613b855760405162461bcd60e51b815260206004820152602a60248201527f455243313135353a20696e73756666696369656e742062616c616e636520666f60448201527f72207472616e736665720000000000000000000000000000000000000000000060648201526084016107db565b6125ca565b60048316156125ca5760405163a2a7201360e01b8152600481018590526024016107db565b6001600160a01b0384163b15613d9b576040517fbc197c810000000000000000000000000000000000000000000000000000000081526001600160a01b0385169063bc197c8190613c0c9089908990889088908890600401615997565b6020604051808303816000875af1925050508015613c47575060408051601f3d908101601f19168201909252613c44918101906159e9565b60015b613cfc57613c53615a06565b806308c379a003613c8c5750613c67615a22565b80613c725750613c8e565b8060405162461bcd60e51b81526004016107db9190614ade565b505b60405162461bcd60e51b815260206004820152603460248201527f455243313135353a207472616e7366657220746f206e6f6e204552433131353560448201527f526563656976657220696d706c656d656e74657200000000000000000000000060648201526084016107db565b6001600160e01b031981167fbc197c810000000000000000000000000000000000000000000000000000000014611f715760405162461bcd60e51b815260206004820152602860248201527f455243313135353a204552433131353552656365697665722072656a6563746560448201527f6420746f6b656e7300000000000000000000000000000000000000000000000060648201526084016107db565b505050505050565b63ffff00008216158015906001831615908290613dbd5750805b156115db5760405163a2a7201360e01b8152600481018690526024016107db565b60008167ffffffffffffffff168467ffffffffffffffff161115613e00578193505b8267ffffffffffffffff168467ffffffffffffffff161015613e20578293505b509192915050565b613e3484848484614490565b6040805163ffffffff8416815267ffffffffffffffff8316602082015285917f936318e296f824e203b086d97bb155a0200cec4847efea1fb4b9b7f924157355910160405180910390a250505050565b600080613e9083610820565b5090949350505050565b600080546001600160a01b038381167fffffffffffffffffffffffff0000000000000000000000000000000000000000831681178455604051919092169283917f8be0079c531659141344cd1fd0a4f28419497f9722a3daafe3b4186f6b6457e09190a35050565b613f0d826001612205565b15613f2e5760405163a2a7201360e01b8152600481018390526024016107db565b613f37826144f0565b6040517f5b0fc9c3000000000000000000000000000000000000000000000000000000008152600481018390526001600160a01b0382811660248301527f00000000000000000000000000000000000000000000000000000000000000001690635b0fc9c390604401600060405180830381600087803b158015613fba57600080fd5b505af1158015613fce573d6000803e3d6000fd5b50506040516001600160a01b03841681528492507fee2ba1195c65bcf218a83d874335c6bf9d9067b4c672f3c3bf16cf40de7586c49150602001612cd6565b6140198584848461459a565b847f8ce7013e8abebc55c3890a68f5a27c67c3f7efa64e584de5fb22363c606fd3408585858560405161404f9493929190615aca565b60405180910390a25050505050565b600080600061406c86610820565b92509250925061407d868383613ad8565b5084600114801561409f5750876001600160a01b0316836001600160a01b0316145b6141115760405162461bcd60e51b815260206004820152602a60248201527f455243313135353a20696e73756666696369656e742062616c616e636520666f60448201527f72207472616e736665720000000000000000000000000000000000000000000060648201526084016107db565b866001600160a01b0316836001600160a01b031603614132575050506115db565b60008681526001602052604090206001600160a01b03881663ffffffff60a01b60a085901b16177fffffffffffffffff00000000000000000000000000000000000000000000000060c084901b1617905560408051878152602081018790526001600160a01b03808a1692908b169133917fc3d58168c5ae7397731d063d5bbf3d657854427343f4c083240f7aacaa2d0f62910160405180910390a4611bf933898989898961460c565b60065460009081906001600160a01b0316614223576040517f24c1d6d400000000000000000000000000000000000000000000000000000000815260040160405180910390fd5b61422d83336117b7565b6142535760405163168ab55d60e31b8152600481018490523360248201526044016107db565b61425c83610820565b909350915061426c9050836144f0565b915091565b600080835183106142c45760405162461bcd60e51b815260206004820152601e60248201527f726561644c6162656c3a20496e646578206f7574206f6620626f756e6473000060448201526064016107db565b60008484815181106142d8576142d861563c565b016020015160f81c90508015614304576142fd856142f7866001615b12565b8361474f565b9250614309565b600092505b6143138185615b12565b61431e906001615b12565b9150509250929050565b60008060006143378585614271565b9092509050816143a9576001855161434f9190615b25565b841461439d5760405162461bcd60e51b815260206004820152601d60248201527f6e616d65686173683a204a756e6b20617420656e64206f66206e616d6500000060448201526064016107db565b506000915061081a9050565b6143b38582614328565b6040805160208101929092528101839052606001604051602081830303815290604052805190602001209250505092915050565b6060600183511015614425576040517f280dacb600000000000000000000000000000000000000000000000000000000815260040160405180910390fd5b60ff8351111561446357826040517fe3ba295f0000000000000000000000000000000000000000000000000000000081526004016107db9190614ade565b8251838360405160200161447993929190615b38565b604051602081830303815290604052905092915050565b61449a8483614773565b60008481526001602052604090206001600160a01b03841663ffffffff60a01b60a085901b16177fffffffffffffffff00000000000000000000000000000000000000000000000060c084901b16179055611a1b565b60008060006144fe84610820565b600087815260016020526040902063ffffffff60a01b60a084901b167fffffffffffffffff00000000000000000000000000000000000000000000000060c084901b161790559194509250905060408051858152600160208201526000916001600160a01b0386169133917fc3d58168c5ae7397731d063d5bbf3d657854427343f4c083240f7aacaa2d0f62910160405180910390a450505050565b6145a48483614773565b60006145af85611a21565b90506001600160a01b03811615614600576145c9856144f0565b6040516000815285907fee2ba1195c65bcf218a83d874335c6bf9d9067b4c672f3c3bf16cf40de7586c49060200160405180910390a25b6115db858585856147ac565b6001600160a01b0384163b15613d9b576040517ff23a6e610000000000000000000000000000000000000000000000000000000081526001600160a01b0385169063f23a6e61906146699089908990889088908890600401615b99565b6020604051808303816000875af19250505080156146a4575060408051601f3d908101601f191682019092526146a1918101906159e9565b60015b6146b057613c53615a06565b6001600160e01b031981167ff23a6e610000000000000000000000000000000000000000000000000000000014611f715760405162461bcd60e51b815260206004820152602860248201527f455243313135353a204552433131353552656365697665722072656a6563746560448201527f6420746f6b656e7300000000000000000000000000000000000000000000000060648201526084016107db565b825160009061475e8385615b12565b111561476957600080fd5b5091016020012090565b61ffff81161580159061478b57506201000181811614155b156138e15760405163a2a7201360e01b8152600481018390526024016107db565b83600080806147ba84610820565b9194509250905063ffff0000821667ffffffffffffffff80871690831611156147e1578195505b428267ffffffffffffffff16106147f757958617955b6001600160a01b0384161561484e5760405162461bcd60e51b815260206004820152601f60248201527f455243313135353a206d696e74206f66206578697374696e6720746f6b656e0060448201526064016107db565b6001600160a01b0388166148ca5760405162461bcd60e51b815260206004820152602160248201527f455243313135353a206d696e7420746f20746865207a65726f2061646472657360448201527f730000000000000000000000000000000000000000000000000000000000000060648201526084016107db565b306001600160a01b038916036149485760405162461bcd60e51b815260206004820152603460248201527f455243313135353a206e65774f776e65722063616e6e6f74206265207468652060448201527f4e616d655772617070657220636f6e747261637400000000000000000000000060648201526084016107db565b60008581526001602052604090206001600160a01b03891663ffffffff60a01b60a08a901b16177fffffffffffffffff00000000000000000000000000000000000000000000000060c089901b1617905560408051868152600160208201526001600160a01b038a169160009133917fc3d58168c5ae7397731d063d5bbf3d657854427343f4c083240f7aacaa2d0f62910160405180910390a4612b2d3360008a8860016040518060200160405280600081525061460c565b6001600160a01b038116811461249757600080fd5b60008060408385031215614a2957600080fd5b8235614a3481614a01565b946020939093013593505050565b600060208284031215614a5457600080fd5b5035919050565b6001600160e01b03198116811461249757600080fd5b600060208284031215614a8357600080fd5b81356125ca81614a5b565b60005b83811015614aa9578181015183820152602001614a91565b50506000910152565b60008151808452614aca816020860160208601614a8e565b601f01601f19169290920160200192915050565b6020815260006125ca6020830184614ab2565b803567ffffffffffffffff81168114614b0957600080fd5b919050565b60008060408385031215614b2157600080fd5b82359150614b3160208401614af1565b90509250929050565b60008083601f840112614b4c57600080fd5b50813567ffffffffffffffff811115614b6457600080fd5b602083019150836020828501011115614b7c57600080fd5b9250929050565b600080600080600060808688031215614b9b57600080fd5b8535614ba681614a01565b94506020860135614bb681614a01565b935060408601359250606086013567ffffffffffffffff811115614bd957600080fd5b614be588828901614b3a565b969995985093965092949392505050565b600060208284031215614c0857600080fd5b81356125ca81614a01565b60008060408385031215614c2657600080fd5b823591506020830135614c3881614a01565b809150509250929050565b634e487b7160e01b600052604160045260246000fd5b601f19601f830116810181811067ffffffffffffffff82111715614c7f57614c7f614c43565b6040525050565b600067ffffffffffffffff821115614ca057614ca0614c43565b50601f01601f191660200190565b600082601f830112614cbf57600080fd5b8135614cca81614c86565b604051614cd78282614c59565b828152856020848701011115614cec57600080fd5b82602086016020830137600092810160200192909252509392505050565b803563ffffffff81168114614b0957600080fd5b600080600080600080600060e0888a031215614d3957600080fd5b87359650602088013567ffffffffffffffff811115614d5757600080fd5b614d638a828b01614cae565b9650506040880135614d7481614a01565b94506060880135614d8481614a01565b9350614d9260808901614af1565b9250614da060a08901614d0a565b9150614dae60c08901614af1565b905092959891949750929550565b600067ffffffffffffffff821115614dd657614dd6614c43565b5060051b60200190565b600082601f830112614df157600080fd5b81356020614dfe82614dbc565b604051614e0b8282614c59565b83815260059390931b8501820192828101915086841115614e2b57600080fd5b8286015b848110156121fa5780358352918301918301614e2f565b600080600080600060a08688031215614e5e57600080fd5b8535614e6981614a01565b94506020860135614e7981614a01565b9350604086013567ffffffffffffffff80821115614e9657600080fd5b614ea289838a01614de0565b94506060880135915080821115614eb857600080fd5b614ec489838a01614de0565b93506080880135915080821115614eda57600080fd5b50614ee788828901614cae565b9150509295509295909350565b60008060008060808587031215614f0a57600080fd5b8435935060208501359250614f2160408601614d0a565b9150614f2f60608601614af1565b905092959194509250565b803561ffff81168114614b0957600080fd5b60008060408385031215614f5f57600080fd5b82359150614b3160208401614f3a565b60008060408385031215614f8257600080fd5b823567ffffffffffffffff80821115614f9a57600080fd5b818501915085601f830112614fae57600080fd5b81356020614fbb82614dbc565b604051614fc88282614c59565b83815260059390931b8501820192828101915089841115614fe857600080fd5b948201945b8386101561500f57853561500081614a01565b82529482019490820190614fed565b9650508601359250508082111561502557600080fd5b5061431e85828601614de0565b600081518084526020808501945080840160005b8381101561506257815187529582019590820190600101615046565b509495945050505050565b6020815260006125ca6020830184615032565b60008060006060848603121561509557600080fd5b83356150a081614a01565b925060208401356150b081614a01565b929592945050506040919091013590565b6000806000606084860312156150d657600080fd5b8335925060208401356150e881614a01565b915060408401356150f881614a01565b809150509250925092565b60008060008060006080868803121561511b57600080fd5b853567ffffffffffffffff81111561513257600080fd5b61513e88828901614b3a565b909650945050602086013561515281614a01565b925061516060408701614f3a565b9150606086013561517081614a01565b809150509295509295909350565b801515811461249757600080fd5b6000806040838503121561519f57600080fd5b82356151aa81614a01565b91506020830135614c388161517e565b60008060008060008060a087890312156151d357600080fd5b863567ffffffffffffffff8111156151ea57600080fd5b6151f689828a01614b3a565b909750955050602087013561520a81614a01565b935060408701359250606087013561522181614a01565b915061522f60808801614f3a565b90509295509295509295565b6000806040838503121561524e57600080fd5b82359150614b3160208401614d0a565b6000806040838503121561527157600080fd5b50508035926020909101359150565b60008060008060008060a0878903121561529957600080fd5b86359550602087013567ffffffffffffffff8111156152b757600080fd5b6152c389828a01614b3a565b90965094505060408701356152d781614a01565b92506152e560608801614d0a565b915061522f60808801614af1565b6000806000806080858703121561530957600080fd5b84359350602085013561531b81614a01565b92506040850135614f2181614a01565b60008060006060848603121561534057600080fd5b833592506020840135915060408401356150f881614a01565b6000806000806060858703121561536f57600080fd5b843567ffffffffffffffff81111561538657600080fd5b61539287828801614b3a565b90955093505060208501356153a681614a01565b915060408501356153b681614a01565b939692955090935050565b600080604083850312156153d457600080fd5b82356153df81614a01565b91506020830135614c3881614a01565b60008060008060006080868803121561540757600080fd5b85359450602086013567ffffffffffffffff81111561542557600080fd5b61543188828901614b3a565b909550935050604086013561516081614a01565b600080600080600060a0868803121561545d57600080fd5b853561546881614a01565b9450602086013561547881614a01565b93506040860135925060608601359150608086013567ffffffffffffffff8111156154a257600080fd5b614ee788828901614cae565b6000602082840312156154c057600080fd5b5051919050565b634e487b7160e01b600052601160045260246000fd5b67ffffffffffffffff8181168382160190808211156154fe576154fe6154c7565b5092915050565b60006020828403121561551757600080fd5b815167ffffffffffffffff81111561552e57600080fd5b8201601f8101841361553f57600080fd5b805161554a81614c86565b6040516155578282614c59565b82815286602084860101111561556c57600080fd5b61183f836020830160208701614a8e565b6000806000806080858703121561559357600080fd5b843567ffffffffffffffff8111156155aa57600080fd5b6155b687828801614cae565b94505060208501356155c781614a01565b92506155d560408601614f3a565b915060608501356153b681614a01565b600181811c908216806155f957607f821691505b60208210810361561957634e487b7160e01b600052602260045260246000fd5b50919050565b60006020828403121561563157600080fd5b81516125ca81614a01565b634e487b7160e01b600052603260045260246000fd5b60006000198203615665576156656154c7565b5060010190565b60408152600061567f6040830185615032565b82810360208401526156918185615032565b95945050505050565b67ffffffffffffffff8281168282160390808211156154fe576154fe6154c7565b6000602082840312156156cd57600080fd5b81516125ca8161517e565b8183823760009101908152919050565b818352818160208501375060006020828401015260006020601f19601f840116840101905092915050565b60a08152600061572760a08301888a6156e8565b90506001600160a01b03808716602084015263ffffffff8616604084015267ffffffffffffffff85166060840152808416608084015250979650505050505050565b601f8211156157af57600081815260208120601f850160051c810160208610156157905750805b601f850160051c820191505b81811015613d9b5782815560010161579c565b505050565b67ffffffffffffffff8311156157cc576157cc614c43565b6157e0836157da83546155e5565b83615769565b6000601f84116001811461581457600085156157fc5750838201355b600019600387901b1c1916600186901b1783556115db565b600083815260209020601f19861690835b828110156158455786850135825560209485019460019092019101615825565b50868210156158625760001960f88860031b161c19848701351681555b505060018560011b0183555050505050565b88815260e06020820152600061588e60e08301898b6156e8565b6001600160a01b03978816604084015295909616606082015267ffffffffffffffff938416608082015263ffffffff9290921660a083015290911660c090910152949350505050565b815167ffffffffffffffff8111156158f1576158f1614c43565b615905816158ff84546155e5565b84615769565b602080601f83116001811461593a57600084156159225750858301515b600019600386901b1c1916600185901b178555613d9b565b600085815260208120601f198616915b828110156159695788860151825594840194600190910190840161594a565b50858210156159875787850151600019600388901b60f8161c191681555b5050505050600190811b01905550565b60006001600160a01b03808816835280871660208401525060a060408301526159c360a0830186615032565b82810360608401526159d58186615032565b905082810360808401526139e38185614ab2565b6000602082840312156159fb57600080fd5b81516125ca81614a5b565b600060033d1115615a1f5760046000803e5060005160e01c5b90565b600060443d1015615a305790565b6040517ffffffffffffffffffffffffffffffffffffffffffffffffffffffffffffffffc803d016004833e81513d67ffffffffffffffff8160248401118184111715615a7e57505050505090565b8285019150815181811115615a965750505050505090565b843d8701016020828501011115615ab05750505050505090565b615abf60208286010187614c59565b509095945050505050565b608081526000615add6080830187614ab2565b6001600160a01b039590951660208301525063ffffffff92909216604083015267ffffffffffffffff16606090910152919050565b8082018082111561081a5761081a6154c7565b8181038181111561081a5761081a6154c7565b7fff000000000000000000000000000000000000000000000000000000000000008460f81b16815260008351615b75816001850160208801614a8e565b835190830190615b8c816001840160208801614a8e565b0160010195945050505050565b60006001600160a01b03808816835280871660208401525084604083015283606083015260a06080830152615bd160a0830184614ab2565b97965050505050505056fea2646970667358221220404b4d7cab9b817b64058afedef3e04d49299b5864767be624b91a86e1c65cc264736f6c63430008110033",
  "devdoc": {
    "kind": "dev",
    "methods": {
      "allFusesBurned(bytes32,uint32)": {
        "params": {
          "fuseMask": "The fuses you want to check",
          "node": "Namehash of the name"
        },
        "returns": {
          "_0": "Boolean of whether or not all the selected fuses are burned"
        }
      },
      "balanceOf(address,uint256)": {
        "details": "See {IERC1155-balanceOf}. Requirements: - `account` cannot be the zero address."
      },
      "balanceOfBatch(address[],uint256[])": {
        "details": "See {IERC1155-balanceOfBatch}. Requirements: - `accounts` and `ids` must have the same length."
      },
      "canModifyName(bytes32,address)": {
        "params": {
          "addr": "which address to check permissions for",
          "node": "namehash of the name to check"
        },
        "returns": {
          "_0": "whether or not is owner or approved"
        }
      },
      "getData(uint256)": {
        "params": {
          "id": "Namehash of the name"
        },
        "returns": {
          "expiry": "Expiry of the name",
          "fuses": "Fuses of the name",
          "owner": "Owner of the name"
        }
      },
      "isApprovedForAll(address,address)": {
        "details": "See {IERC1155-isApprovedForAll}."
      },
      "owner()": {
        "details": "Returns the address of the current owner."
      },
      "ownerOf(uint256)": {
        "params": {
          "id": "Label as a string of the .arb domain to wrap"
        },
        "returns": {
          "owner": "The owner of the name"
        }
      },
      "recoverFunds(address,address,uint256)": {
        "details": "The contract is Ownable and only the owner can call the recover function.",
        "params": {
          "_amount": "The amount of tokens to recover.",
          "_to": "The address to send the tokens to.",
          "_token": "The address of the ERC20 token to recover"
        }
      },
      "registerAndWrapETH2LD(string,address,uint256,address,uint16)": {
        "details": "Registers a new .arb second-level domain and wraps it.      Only callable by authorised controllers.",
        "params": {
          "duration": "The duration, in seconds, to register the name for.",
          "label": "The label to register (Eg, 'foo' for 'foo.arb').",
          "ownerControlledFuses": "Initial owner-controlled fuses to set",
          "resolver": "The resolver address to set on the ENS registry (optional).",
          "wrappedOwner": "The owner of the wrapped name."
        },
        "returns": {
          "registrarExpiry": "The expiry date of the new name on the .arb registrar, in seconds since the Unix epoch."
        }
      },
      "renew(uint256,uint256)": {
        "details": "Only callable by authorised controllers.",
        "params": {
          "duration": "The number of seconds to renew the name for.",
          "tokenId": "The hash of the label to register (eg, `keccak256('foo')`, for 'foo.arb')."
        },
        "returns": {
          "expires": "The expiry date of the name on the .arb registrar, in seconds since the Unix epoch."
        }
      },
      "renounceOwnership()": {
        "details": "Leaves the contract without owner. It will not be possible to call `onlyOwner` functions anymore. Can only be called by the current owner. NOTE: Renouncing ownership will leave the contract without an owner, thereby removing any functionality that is only available to the owner."
      },
      "safeBatchTransferFrom(address,address,uint256[],uint256[],bytes)": {
        "details": "See {IERC1155-safeBatchTransferFrom}."
      },
      "safeTransferFrom(address,address,uint256,uint256,bytes)": {
        "details": "See {IERC1155-safeTransferFrom}."
      },
      "setApprovalForAll(address,bool)": {
        "details": "See {IERC1155-setApprovalForAll}."
      },
      "setChildFuses(bytes32,bytes32,uint32,uint64)": {
        "params": {
          "expiry": "When the name will expire in seconds since the Unix epoch",
          "fuses": "Fuses to burn",
          "labelhash": "Labelhash of the name, e.g. vitalik.xyz would be keccak256('vitalik')",
          "parentNode": "Parent namehash of the name e.g. vitalik.xyz would be namehash('xyz')"
        }
      },
      "setFuses(bytes32,uint16)": {
        "params": {
          "node": "Namehash of the name",
          "ownerControlledFuses": "Owner-controlled fuses to burn"
        },
        "returns": {
          "_0": "New fuses"
        }
      },
      "setMetadataService(address)": {
        "params": {
          "_metadataService": "The new metadata service"
        }
      },
      "setRecord(bytes32,address,address,uint64)": {
        "params": {
          "node": "Namehash of the name to set a record for",
          "owner": "New owner in the registry",
          "resolver": "Resolver contract",
          "ttl": "Time to live in the registry"
        }
      },
      "setResolver(bytes32,address)": {
        "params": {
          "node": "namehash of the name",
          "resolver": "the resolver contract"
        }
      },
      "setSubnodeOwner(bytes32,string,address,uint32,uint64)": {
        "params": {
          "expiry": "When the name will expire in seconds since the Unix epoch",
          "fuses": "Initial fuses for the wrapped subdomain",
          "label": "Label of the subdomain as a string",
          "owner": "New owner in the wrapper",
          "parentNode": "Parent namehash of the subdomain"
        },
        "returns": {
          "node": "Namehash of the subdomain"
        }
      },
      "setSubnodeRecord(bytes32,string,address,address,uint64,uint32,uint64)": {
        "params": {
          "expiry": "When the name will expire in seconds since the Unix epoch",
          "fuses": "initial fuses for the wrapped subdomain",
          "label": "label of the subdomain as a string",
          "owner": "new owner in the wrapper",
          "parentNode": "parent namehash of the subdomain",
          "resolver": "resolver contract in the registry",
          "ttl": "ttl in the regsitry"
        },
        "returns": {
          "node": "Namehash of the subdomain"
        }
      },
      "setTTL(bytes32,uint64)": {
        "params": {
          "node": "Namehash of the name",
          "ttl": "TTL in the registry"
        }
      },
      "setUpgradeContract(address)": {
        "details": "The default value of upgradeContract is the 0 address. Use the 0 address at any time to make the contract not upgradable.",
        "params": {
          "_upgradeAddress": "address of an upgraded contract"
        }
      },
      "transferOwnership(address)": {
        "details": "Transfers ownership of the contract to a new account (`newOwner`). Can only be called by the current owner."
      },
      "unwrap(bytes32,bytes32,address)": {
        "details": "Can be called by the owner in the wrapper or an authorised caller in the wrapper",
        "params": {
          "controller": "Sets the owner in the registry to this address",
          "labelhash": "Labelhash of the name, e.g. vitalik.xyz would be keccak256('vitalik')",
          "parentNode": "Parent namehash of the name e.g. vitalik.xyz would be namehash('xyz')"
        }
      },
      "unwrapETH2LD(bytes32,address,address)": {
        "details": "Can be called by the owner in the wrapper or an authorised caller in the wrapper",
        "params": {
          "controller": "Sets the owner in the registry to this address",
          "labelhash": "Labelhash of the .arb domain",
          "registrant": "Sets the owner in the .arb registrar to this address"
        }
      },
      "upgrade(bytes32,string,address,address)": {
        "details": "Can be called by the owner or an authorised caller Requires upgraded Namewrapper to permit old Namewrapper to call `setSubnodeRecord` for all names",
        "params": {
          "label": "Label as a string of the name to upgrade",
          "parentNode": "Namehash of the parent name",
          "resolver": "Resolver contract for this name",
          "wrappedOwner": "Owner of the name in this contract"
        }
      },
      "upgradeETH2LD(string,address,address)": {
        "details": "Can be called by the owner of the name in this contract",
        "params": {
          "label": "Label as a string of the .arb name to upgrade",
          "wrappedOwner": "The owner of the wrapped name"
        }
      },
      "uri(uint256)": {
        "params": {
          "tokenId": "The id of the token"
        },
        "returns": {
          "_0": "string uri of the metadata service"
        }
      },
      "wrap(bytes,address,address)": {
        "details": "Can be called by the owner in the registry or an authorised caller in the registry",
        "params": {
          "name": "The name to wrap, in DNS format",
          "resolver": "Resolver contract",
          "wrappedOwner": "Owner of the name in this contract"
        }
      },
      "wrapETH2LD(string,address,uint16,address)": {
        "details": "Can be called by the owner of the name on the .arb registrar or an authorised caller on the registrar",
        "params": {
          "label": "Label as a string of the .arb domain to wrap",
          "ownerControlledFuses": "Initial owner-controlled fuses to set",
          "resolver": "Resolver contract address",
          "wrappedOwner": "Owner of the name in this contract"
        }
      }
    },
    "version": 1
  },
  "userdoc": {
    "kind": "user",
    "methods": {
      "allFusesBurned(bytes32,uint32)": {
        "notice": "Checks all Fuses in the mask are burned for the node"
      },
      "canModifyName(bytes32,address)": {
        "notice": "Checks if owner or approved by owner"
      },
      "getData(uint256)": {
        "notice": "Gets the data for a name"
      },
      "ownerOf(uint256)": {
        "notice": "Gets the owner of a name"
      },
      "recoverFunds(address,address,uint256)": {
        "notice": "Recover ERC20 tokens sent to the contract by mistake."
      },
      "renew(uint256,uint256)": {
        "notice": "Renews a .arb second-level domain."
      },
      "setChildFuses(bytes32,bytes32,uint32,uint64)": {
        "notice": "Sets fuses of a name that you own the parent of. Can also be called by the owner of a .arb name"
      },
      "setFuses(bytes32,uint16)": {
        "notice": "Sets fuses of a name"
      },
      "setMetadataService(address)": {
        "notice": "Set the metadata service. Only the owner can do this"
      },
      "setRecord(bytes32,address,address,uint64)": {
        "notice": "Sets records for the name in the ENS Registry"
      },
      "setResolver(bytes32,address)": {
        "notice": "Sets resolver contract in the registry"
      },
      "setSubnodeOwner(bytes32,string,address,uint32,uint64)": {
        "notice": "Sets the subdomain owner in the registry and then wraps the subdomain"
      },
      "setSubnodeRecord(bytes32,string,address,address,uint64,uint32,uint64)": {
        "notice": "Sets the subdomain owner in the registry with records and then wraps the subdomain"
      },
      "setTTL(bytes32,uint64)": {
        "notice": "Sets TTL in the registry"
      },
      "setUpgradeContract(address)": {
        "notice": "Set the address of the upgradeContract of the contract. only admin can do this"
      },
      "unwrap(bytes32,bytes32,address)": {
        "notice": "Unwraps a non .arb domain, of any kind. Could be a DNSSEC name vitalik.xyz or a subdomain"
      },
      "unwrapETH2LD(bytes32,address,address)": {
        "notice": "Unwraps a .arb domain. e.g. vitalik.arb"
      },
      "upgrade(bytes32,string,address,address)": {
        "notice": "Upgrades a non .arb domain of any kind. Could be a DNSSEC name vitalik.xyz or a subdomain"
      },
      "upgradeETH2LD(string,address,address)": {
        "notice": "Upgrades a .arb wrapped domain by calling the wrapETH2LD function of the upgradeContract     and burning the token of this contract"
      },
      "uri(uint256)": {
        "notice": "Get the metadata uri"
      },
      "wrap(bytes,address,address)": {
        "notice": "Wraps a non .arb domain, of any kind. Could be a DNSSEC name vitalik.xyz or a subdomain"
      },
      "wrapETH2LD(string,address,uint16,address)": {
        "notice": "Wraps a .arb domain, creating a new token and sending the original ERC721 token to this contract"
      }
    },
    "version": 1
  },
  "storageLayout": {
    "storage": [
      {
        "astId": 545,
        "contract": "contracts/wrapper/NameWrapper.sol:NameWrapper",
        "label": "_owner",
        "offset": 0,
        "slot": "0",
        "type": "t_address"
      },
      {
        "astId": 18947,
        "contract": "contracts/wrapper/NameWrapper.sol:NameWrapper",
        "label": "_tokens",
        "offset": 0,
        "slot": "1",
        "type": "t_mapping(t_uint256,t_uint256)"
      },
      {
        "astId": 18953,
        "contract": "contracts/wrapper/NameWrapper.sol:NameWrapper",
        "label": "_operatorApprovals",
        "offset": 0,
        "slot": "2",
        "type": "t_mapping(t_address,t_mapping(t_address,t_bool))"
      },
      {
        "astId": 18887,
        "contract": "contracts/wrapper/NameWrapper.sol:NameWrapper",
        "label": "controllers",
        "offset": 0,
        "slot": "3",
        "type": "t_mapping(t_address,t_bool)"
      },
      {
        "astId": 20216,
        "contract": "contracts/wrapper/NameWrapper.sol:NameWrapper",
        "label": "metadataService",
        "offset": 0,
        "slot": "4",
        "type": "t_contract(IMetadataService)19814"
      },
      {
        "astId": 20221,
        "contract": "contracts/wrapper/NameWrapper.sol:NameWrapper",
        "label": "names",
        "offset": 0,
        "slot": "5",
        "type": "t_mapping(t_bytes32,t_bytes_storage)"
      },
      {
        "astId": 20239,
        "contract": "contracts/wrapper/NameWrapper.sol:NameWrapper",
        "label": "upgradeContract",
        "offset": 0,
        "slot": "6",
        "type": "t_contract(INameWrapperUpgrade)20121"
      }
    ],
    "types": {
      "t_address": {
        "encoding": "inplace",
        "label": "address",
        "numberOfBytes": "20"
      },
      "t_bool": {
        "encoding": "inplace",
        "label": "bool",
        "numberOfBytes": "1"
      },
      "t_bytes32": {
        "encoding": "inplace",
        "label": "bytes32",
        "numberOfBytes": "32"
      },
      "t_bytes_storage": {
        "encoding": "bytes",
        "label": "bytes",
        "numberOfBytes": "32"
      },
      "t_contract(IMetadataService)19814": {
        "encoding": "inplace",
        "label": "contract IMetadataService",
        "numberOfBytes": "20"
      },
      "t_contract(INameWrapperUpgrade)20121": {
        "encoding": "inplace",
        "label": "contract INameWrapperUpgrade",
        "numberOfBytes": "20"
      },
      "t_mapping(t_address,t_bool)": {
        "encoding": "mapping",
        "key": "t_address",
        "label": "mapping(address => bool)",
        "numberOfBytes": "32",
        "value": "t_bool"
      },
      "t_mapping(t_address,t_mapping(t_address,t_bool))": {
        "encoding": "mapping",
        "key": "t_address",
        "label": "mapping(address => mapping(address => bool))",
        "numberOfBytes": "32",
        "value": "t_mapping(t_address,t_bool)"
      },
      "t_mapping(t_bytes32,t_bytes_storage)": {
        "encoding": "mapping",
        "key": "t_bytes32",
        "label": "mapping(bytes32 => bytes)",
        "numberOfBytes": "32",
        "value": "t_bytes_storage"
      },
      "t_mapping(t_uint256,t_uint256)": {
        "encoding": "mapping",
        "key": "t_uint256",
        "label": "mapping(uint256 => uint256)",
        "numberOfBytes": "32",
        "value": "t_uint256"
      },
      "t_uint256": {
        "encoding": "inplace",
        "label": "uint256",
        "numberOfBytes": "32"
      }
    }
  }
}