{
  "address": "0x05231e500570e84C81CcdB42Ea7D9B762331f8AD",
  "abi": [
    {
      "inputs": [
        {
          "internalType": "bytes",
          "name": "key",
          "type": "bytes"
        },
        {
          "internalType": "bytes",
          "name": "data",
          "type": "bytes"
        },
        {
          "internalType": "bytes",
          "name": "signature",
          "type": "bytes"
        }
      ],
      "name": "verify",
      "outputs": [
        {
          "internalType": "bool",
          "name": "",
          "type": "bool"
        }
      ],
      "stateMutability": "view",
      "type": "function"
    }
  ],
  "transactionHash": "0x21e41d61f2f9b04a613fbeb648e178c29b7be0c7ade712fa148e1ad4e8aa5073",
  "args": [],
  "numDeployments": 2,
  "solcInputHash": "20d0cf755bdff128bd31fe4809ab35fa",
  "bytecode": "0x608060405234801561001057600080fd5b50610fc0806100206000396000f3fe608060405234801561001057600080fd5b506004361061002b5760003560e01c8063de8f50a114610030575b600080fd5b61004361003e366004610e08565b610057565b604051901515815260200160405180910390f35b60006101316002868660405161006e929190610ea2565b602060405180830381855afa15801561008b573d6000803e3d6000fd5b5050506040513d601f19601f820116820180604052508101906100ae9190610eb2565b6100ed85858080601f01602080910402602001604051908101604052809392919081815260200183838082843760009201919091525061013c92505050565b61012c8a8a8080601f0160208091040260200160405190810160405280939291908181526020018383808284376000920191909152506101e592505050565b61027e565b979650505050505050565b610144610d8a565b81516040146101b4576040517f08c379a000000000000000000000000000000000000000000000000000000000815260206004820152601d60248201527f496e76616c69642070323536207369676e6174757265206c656e67746800000060448201526064015b60405180910390fd5b60408051808201909152806101ca846000610479565b81526020908101906101dd908590610479565b905292915050565b6101ed610d8a565b8151604414610258576040517f08c379a000000000000000000000000000000000000000000000000000000000815260206004820152601760248201527f496e76616c69642070323536206b6579206c656e67746800000000000000000060448201526064016101ab565b604080518082019091528061026e846004610479565b81526020016101dd846024610479565b815160009015806102b0575082517fffffffff00000000ffffffffffffffffbce6faada7179e84f3b9cac2fc63255111155b806102bd57506020830151155b156102ca57506000610472565b815160208301516102db919061049d565b6102e757506000610472565b60008080808061031e88600160200201517fffffffff00000000ffffffffffffffffbce6faada7179e84f3b9cac2fc632551610599565b905061038e7f6b17d1f2e12c4247f8bce6e563a440f277037d812deb33a0f4a13945d898c2967f4fe342e2fe1a7f9b8ee7eb4a7c0f9e162bce33576b315ececbb6406837bf51f57fffffffff00000000ffffffffffffffffbce6faada7179e84f3b9cac2fc632551848d09610633565b885160208a01518b519398509195506103ce929091907fffffffff00000000ffffffffffffffffbce6faada7179e84f3b9cac2fc63255190859009610633565b909450915060006103e186858786610703565b60408101519091506000036103ff5760009650505050505050610472565b60006104208260026020020151600160601b63ffffffff60c01b0319610599565b9050600160601b63ffffffff60c01b0319808283098351098a519091506104677fffffffff00000000ffffffffffffffffbce6faada7179e84f3b9cac2fc63255183610efa565b149750505050505050505b9392505050565b8151600090610489836020610f64565b111561049457600080fd5b50016020015190565b60008215806104b95750600160601b63ffffffff60c01b031983145b806104c2575081155b806104da5750600160601b63ffffffff60c01b031982145b156104e757506000610593565b6000600160601b63ffffffff60c01b031983840990506000600160601b63ffffffff60c01b031985600160601b63ffffffff60c01b0319878809099050600160601b63ffffffff60c01b0319807fffffffff00000001000000000000000000000000fffffffffffffffffffffffc870982089050600160601b63ffffffff60c01b03197f5ac635d8aa3a93e7b3ebbd55769886bc651d06b0cc53b0f63bce3c3e27d2604b820890501490505b92915050565b60008215806105a757508183145b806105b0575081155b156105bd57506000610593565b818311156105d8578183816105d4576105d4610ecb565b0692505b600060018385835b811561060f578183816105f5576105f5610ecb565b9495940485810290940393919283830290039190506105e0565b60008512156106275750505090830191506105939050565b50929695505050505050565b6000808260000361064b576000805b915091506106fb565b8260010361065d5750839050826106fb565b8260020361066f576106428585610729565b50839050828181600180610684600288610efa565b60000361069357600094508495505b600187901c96505b86156106e7576106ac848484610759565b919550935091506106be600288610efa565b6001036106db576106d38484848989866109b7565b919750955090505b600187901c965061069b565b6106f2868683610abc565b95509550505050505b935093915050565b61070b610da8565b60008061071a87878787610b0c565b90925090506101318282610b41565b600080600061073a85856001610759565b9196509450905061074c858583610abc565b92509250505b9250929050565b600080600080600080600061076e8a8a610b9a565b15610787576000600181965096509650505050506109ae565b600160601b63ffffffff60c01b0319888a099250600160601b63ffffffff60c01b0319600284099250600160601b63ffffffff60c01b03198a84099150600160601b63ffffffff60c01b03198983099150600160601b63ffffffff60c01b0319600283099150600160601b63ffffffff60c01b03198a8b099950600160601b63ffffffff60c01b031960038b099350600160601b63ffffffff60c01b03198889099750600160601b63ffffffff60c01b03197fffffffff00000001000000000000000000000000fffffffffffffffffffffffc89099750600160601b63ffffffff60c01b03198885089350600160601b63ffffffff60c01b03198485099050600160601b63ffffffff60c01b0319826002099950600160601b63ffffffff60c01b03196108c28b600160601b63ffffffff60c01b0319610f77565b82089050600160601b63ffffffff60c01b03196108ed82600160601b63ffffffff60c01b0319610f77565b83089950600160601b63ffffffff60c01b03198a85099950600160601b63ffffffff60c01b0319838a099850600160601b63ffffffff60c01b0319898a099850600160601b63ffffffff60c01b0319896002099850600160601b63ffffffff60c01b03196109698a600160601b63ffffffff60c01b0319610f77565b8b089550600160601b63ffffffff60c01b03198184099650600160601b63ffffffff60c01b03198384099450600160601b63ffffffff60c01b03198386099450505050505b93509350939050565b60008060008060008060006109cc8d8d610b9a565b156109e35789898996509650965050505050610ab0565b6109ed8a8a610b9a565b15610a04578c8c8c96509650965050505050610ab0565b600160601b63ffffffff60c01b0319888d099350600160601b63ffffffff60c01b03198b8a099250600160601b63ffffffff60c01b0319888e099150600160601b63ffffffff60c01b03198b8b099050808203610a8657828403610a7c57610a6d8d8d8d610759565b96509650965050505050610ab0565b6000600181610a6d565b610aa4600160601b63ffffffff60c01b0319898d0983838688610bbe565b91985096509450505050505b96509650969350505050565b6000806000610ad984600160601b63ffffffff60c01b0319610599565b9050600160601b63ffffffff60c01b03198187099250600160601b63ffffffff60c01b0319818609915050935093915050565b6000806000610b2187876001888860016109b7565b91985096509050610b33878783610abc565b925092505094509492505050565b610b49610da8565b600160601b63ffffffff60c01b0319600160000860408201819052600160601b63ffffffff60c01b031990840981526040810151600160601b63ffffffff60c01b0319908309602082015292915050565b600082158015610ba8575081155b15610bb557506001610593565b50600092915050565b600080808080808080600160601b63ffffffff60c01b0319610bee8b600160601b63ffffffff60c01b0319610f77565b8a089050600160601b63ffffffff60c01b0319610c198c600160601b63ffffffff60c01b0319610f77565b8d089450600160601b63ffffffff60c01b03198586099350600160601b63ffffffff60c01b03198182099150600160601b63ffffffff60c01b03198d83099150600160601b63ffffffff60c01b03198c8c089a50600160601b63ffffffff60c01b0319848c099a50600160601b63ffffffff60c01b0319610ca88c600160601b63ffffffff60c01b0319610f77565b83089150600160601b63ffffffff60c01b03198286099750600160601b63ffffffff60c01b03198585099250600160601b63ffffffff60c01b0319848d099b50600160601b63ffffffff60c01b0319610d0f83600160601b63ffffffff60c01b0319610f77565b8d089b50600160601b63ffffffff60c01b03198c82099050600160601b63ffffffff60c01b0319838a099850600160601b63ffffffff60c01b0319610d628a600160601b63ffffffff60c01b0319610f77565b82089650600160601b63ffffffff60c01b03198d840995505050505050955095509592505050565b60405180604001604052806002906020820280368337509192915050565b60405180606001604052806003906020820280368337509192915050565b60008083601f840112610dd857600080fd5b50813567ffffffffffffffff811115610df057600080fd5b60208301915083602082850101111561075257600080fd5b60008060008060008060608789031215610e2157600080fd5b863567ffffffffffffffff80821115610e3957600080fd5b610e458a838b01610dc6565b90985096506020890135915080821115610e5e57600080fd5b610e6a8a838b01610dc6565b90965094506040890135915080821115610e8357600080fd5b50610e9089828a01610dc6565b979a9699509497509295939492505050565b8183823760009101908152919050565b600060208284031215610ec457600080fd5b5051919050565b7f4e487b7100000000000000000000000000000000000000000000000000000000600052601260045260246000fd5b600082610f30577f4e487b7100000000000000000000000000000000000000000000000000000000600052601260045260246000fd5b500690565b7f4e487b7100000000000000000000000000000000000000000000000000000000600052601160045260246000fd5b8082018082111561059357610593610f35565b8181038181111561059357610593610f3556fea26469706673582212204a68ad99d749a6c606b81c1a3c801fd61b9f79f901cf59efceac2aea5d0cbf2164736f6c63430008110033",
  "devdoc": {
    "kind": "dev",
    "methods": {
      "verify(bytes,bytes,bytes)": {
        "details": "Verifies a signature.",
        "params": {
          "data": "The signed data to verify.",
          "key": "The public key to verify with.",
          "signature": "The signature to verify."
        },
        "returns": {
          "_0": "True iff the signature is valid."
        }
      }
    },
    "version": 1
  },
  "userdoc": {
    "kind": "user",
    "methods": {},
    "version": 1
  },
  "storageLayout": {
    "storage": [],
    "types": null
  }
}