{
  "address": "0x23F2E42e670530832f5Bb6d9afF05b5B0b428A1A",
  "abi": [
    {
      "inputs": [
        {
          "internalType": "bytes",
          "name": "name",
          "type": "bytes"
        }
      ],
      "name": "isPublicSuffix",
      "outputs": [
        {
          "internalType": "bool",
          "name": "",
          "type": "bool"
        }
      ],
      "stateMutability": "view",
      "type": "function"
    }
  ],
  "transactionHash": "0x081eacd238f1561055de3f2357c774f0f897ce6d62bb22dd699a63e8811c959b",
  "args": [],
  "numDeployments": 1,
  "solcInputHash": "20d0cf755bdff128bd31fe4809ab35fa",
  "bytecode": "0x608060405234801561001057600080fd5b5061023f806100206000396000f3fe608060405234801561001057600080fd5b506004361061002b5760003560e01c80634f89059e14610030575b600080fd5b61004361003e36600461012e565b610057565b604051901515815260200160405180910390f35b60008061009e600085858080601f016020809104026020016040519081016040528093929190818152602001838380828437600092019190915250929392505061010a9050565b60ff16905060008111801561010057506100fb6100bc8260016101a0565b85858080601f016020809104026020016040519081016040528093929190818152602001838380828437600092019190915250929392505061010a9050565b60ff16155b9150505b92915050565b600082828151811061011e5761011e6101da565b016020015160f81c905092915050565b6000806020838503121561014157600080fd5b823567ffffffffffffffff8082111561015957600080fd5b818501915085601f83011261016d57600080fd5b81358181111561017c57600080fd5b86602082850101111561018e57600080fd5b60209290920196919550909350505050565b80820180821115610104577f4e487b7100000000000000000000000000000000000000000000000000000000600052601160045260246000fd5b7f4e487b7100000000000000000000000000000000000000000000000000000000600052603260045260246000fdfea264697066735822122029c79bae1d2428c6f533b4809fbea1bba796fb9ddbe72f658592f7d0c40438b664736f6c63430008110033",
  "devdoc": {
    "details": "A public suffix list that treats all TLDs as public suffixes.",
    "kind": "dev",
    "methods": {},
    "version": 1
  },
  "userdoc": {
    "kind": "user",
    "methods": {},
    "version": 1
  },
  "storageLayout": {
    "storage": [],
    "types": null
  }
}